{
  "_format": "hh-sol-artifact-1",
  "contractName": "BatchValidatorDepositor",
  "sourceName": "contracts/BatchValidatorDepositor.sol",
  "abi": [
    {
      "inputs": [
        {
          "internalType": "bool",
          "name": "mainnet",
          "type": "bool"
        },
        {
          "internalType": "address",
          "name": "depositContract_",
          "type": "address"
        }
      ],
      "stateMutability": "nonpayable",
      "type": "constructor"
    },
    {
      "inputs": [],
      "name": "EnforcedPause",
      "type": "error"
    },
    {
      "inputs": [],
      "name": "ExpectedPause",
      "type": "error"
    },
    {
      "inputs": [
        {
          "internalType": "address",
          "name": "owner",
          "type": "address"
        }
      ],
      "name": "OwnableInvalidOwner",
      "type": "error"
    },
    {
      "inputs": [
        {
          "internalType": "address",
          "name": "account",
          "type": "address"
        }
      ],
      "name": "OwnableUnauthorizedAccount",
      "type": "error"
    },
    {
      "inputs": [],
      "name": "ReentrancyGuardReentrantCall",
      "type": "error"
    },
    {
      "anonymous": false,
      "inputs": [
        {
          "indexed": false,
          "internalType": "address",
          "name": "from",
          "type": "address"
        },
        {
          "indexed": false,
          "internalType": "uint256",
          "name": "nodesAmount",
          "type": "uint256"
        }
      ],
      "name": "DepositEvent",
      "type": "event"
    },
    {
      "anonymous": false,
      "inputs": [
        {
          "indexed": true,
          "internalType": "address",
          "name": "previousOwner",
          "type": "address"
        },
        {
          "indexed": true,
          "internalType": "address",
          "name": "newOwner",
          "type": "address"
        }
      ],
      "name": "OwnershipTransferred",
      "type": "event"
    },
    {
      "anonymous": false,
      "inputs": [
        {
          "indexed": false,
          "internalType": "address",
          "name": "account",
          "type": "address"
        }
      ],
      "name": "Paused",
      "type": "event"
    },
    {
      "anonymous": false,
      "inputs": [
        {
          "indexed": false,
          "internalType": "address",
          "name": "account",
          "type": "address"
        }
      ],
      "name": "Unpaused",
      "type": "event"
    },
    {
      "inputs": [],
      "name": "credentialsLength",
      "outputs": [
        {
          "internalType": "uint256",
          "name": "",
          "type": "uint256"
        }
      ],
      "stateMutability": "view",
      "type": "function"
    },
    {
      "inputs": [
        {
          "internalType": "bytes[]",
          "name": "pubkeys",
          "type": "bytes[]"
        },
        {
          "internalType": "bytes[]",
          "name": "withdrawal_credentials",
          "type": "bytes[]"
        },
        {
          "internalType": "bytes[]",
          "name": "signatures",
          "type": "bytes[]"
        },
        {
          "internalType": "bytes32[]",
          "name": "deposit_data_roots",
          "type": "bytes32[]"
        },
        {
          "internalType": "uint256[]",
          "name": "collateral",
          "type": "uint256[]"
        }
      ],
      "name": "deposit",
      "outputs": [],
      "stateMutability": "payable",
      "type": "function"
    },
    {
      "inputs": [],
      "name": "depositContract",
      "outputs": [
        {
          "internalType": "contract IDepositContract",
          "name": "",
          "type": "address"
        }
      ],
      "stateMutability": "view",
      "type": "function"
    },
    {
      "inputs": [],
      "name": "nodesMaxAmount",
      "outputs": [
        {
          "internalType": "uint256",
          "name": "",
          "type": "uint256"
        }
      ],
      "stateMutability": "view",
      "type": "function"
    },
    {
      "inputs": [],
      "name": "nodesMinAmount",
      "outputs": [
        {
          "internalType": "uint256",
          "name": "",
          "type": "uint256"
        }
      ],
      "stateMutability": "view",
      "type": "function"
    },
    {
      "inputs": [],
      "name": "owner",
      "outputs": [
        {
          "internalType": "address",
          "name": "",
          "type": "address"
        }
      ],
      "stateMutability": "view",
      "type": "function"
    },
    {
      "inputs": [],
      "name": "pause",
      "outputs": [],
      "stateMutability": "nonpayable",
      "type": "function"
    },
    {
      "inputs": [],
      "name": "paused",
      "outputs": [
        {
          "internalType": "bool",
          "name": "",
          "type": "bool"
        }
      ],
      "stateMutability": "view",
      "type": "function"
    },
    {
      "inputs": [],
      "name": "pubkeyLength",
      "outputs": [
        {
          "internalType": "uint256",
          "name": "",
          "type": "uint256"
        }
      ],
      "stateMutability": "view",
      "type": "function"
    },
    {
      "inputs": [],
      "name": "renounceOwnership",
      "outputs": [],
      "stateMutability": "nonpayable",
      "type": "function"
    },
    {
      "inputs": [],
      "name": "signatureLength",
      "outputs": [
        {
          "internalType": "uint256",
          "name": "",
          "type": "uint256"
        }
      ],
      "stateMutability": "view",
      "type": "function"
    },
    {
      "inputs": [
        {
          "internalType": "address",
          "name": "newOwner",
          "type": "address"
        }
      ],
      "name": "transferOwnership",
      "outputs": [],
      "stateMutability": "nonpayable",
      "type": "function"
    },
    {
      "inputs": [],
      "name": "unpause",
      "outputs": [],
      "stateMutability": "nonpayable",
      "type": "function"
    },
    {
      "stateMutability": "payable",
      "type": "receive"
    }
  ],
  "bytecode": "0x608060405234801561001057600080fd5b50604051610df3380380610df383398101604081905261002f91610158565b60016000819055805460ff19169055338061006457604051631e4fbdf760e01b81526000600482015260240160405180910390fd5b61006d816100fe565b5081151560010361009f57600280546001600160a01b0319166f219ab540356cbb839cbe05303d7705fa1790556100f7565b6001600160a01b0381166000036100db57600280546001600160a01b031916738c5fecdc472e27bc447696f431e425d02dd46a8c1790556100f7565b600280546001600160a01b0319166001600160a01b0383161790555b50506101a3565b600180546001600160a01b03838116610100818102610100600160a81b031985161790945560405193909204169182907f8be0079c531659141344cd1fd0a4f28419497f9722a3daafe3b4186f6b6457e090600090a35050565b6000806040838503121561016b57600080fd5b8251801515811461017b57600080fd5b60208401519092506001600160a01b038116811461019857600080fd5b809150509250929050565b610c41806101b26000396000f3fe6080604052600436106100c65760003560e01c80638456cb591161007f578063c09bb1db11610059578063c09bb1db1461023e578063e94ad65b14610251578063f2fde38b14610271578063f4fbdfac1461029157600080fd5b80638456cb59146101dd5780638da5cb5b146101f2578063a5ab1d311461022957600080fd5b80631b9a93231461013c5780633f4ba83a1461016457806343ba591d1461017b5780634903e8be146101905780635c975abb146101a5578063715018a6146101c857600080fd5b366101375760405162461bcd60e51b815260206004820152603660248201527f426174636856616c696461746f724465706f7369746f723a20646f206e6f742060448201527573656e6420455448206469726563746c79206865726560501b60648201526084015b60405180910390fd5b600080fd5b34801561014857600080fd5b50610151606081565b6040519081526020015b60405180910390f35b34801561017057600080fd5b506101796102a6565b005b34801561018757600080fd5b50610151606481565b34801561019c57600080fd5b50610151603081565b3480156101b157600080fd5b5060015460ff16604051901515815260200161015b565b3480156101d457600080fd5b506101796102b8565b3480156101e957600080fd5b506101796102ca565b3480156101fe57600080fd5b5060015461010090046001600160a01b03165b6040516001600160a01b03909116815260200161015b565b34801561023557600080fd5b50610151602081565b61017961024c3660046109d2565b6102da565b34801561025d57600080fd5b50600254610211906001600160a01b031681565b34801561027d57600080fd5b5061017961028c366004610add565b6107e7565b34801561029d57600080fd5b50610151600181565b6102ae610825565b6102b6610858565b565b6102c0610825565b6102b660006108aa565b6102d2610825565b6102b6610904565b6102e261093f565b8880158015906102f3575060648111155b61037a5760405162461bcd60e51b815260206004820152604c60248201527f426174636856616c696461746f724465706f7369746f723a20796f752063616e60448201527f206465706f736974206f6e6c79203120746f20313030206e6f6465732070657260648201526b103a3930b739b0b1ba34b7b760a11b608482015260a40161012e565b878114801561038857508581145b801561039357508381145b801561039e57508181145b6104105760405162461bcd60e51b815260206004820152603a60248201527f426174636856616c696461746f724465706f7369746f723a20616d6f756e742060448201527f6f6620706172616d657465727320646f206e6f74206d61746368000000000000606482015260840161012e565b6000805b8381101561044a5784848281811061042e5761042e610b0d565b90506020020135826104409190610b23565b9150600101610414565b508034146104ca5760405162461bcd60e51b815260206004820152604160248201527f426174636856616c696461746f724465706f7369746f723a2070726f7669646560448201527f642045544820646f6573206e6f74206d617463682072657175697265642045546064820152600960fb1b608482015260a40161012e565b60005b8281101561079f5760308d8d838181106104e9576104e9610b0d565b90506020028101906104fb9190610b4a565b9050146105635760405162461bcd60e51b815260206004820152603060248201527f426174636856616c696461746f724465706f7369746f723a20696e636f72726560448201526f0c6e840e0eac4d6caf240d8cadccee8d60831b606482015260840161012e565b60208b8b8381811061057757610577610b0d565b90506020028101906105899190610b4a565b905014610600576040805162461bcd60e51b81526020600482015260248101919091527f426174636856616c696461746f724465706f7369746f723a20696e636f72726560448201527f6374207769746864726177616c2063726564656e7469616c73206c656e677468606482015260840161012e565b606089898381811061061457610614610b0d565b90506020028101906106269190610b4a565b9050146106915760405162461bcd60e51b815260206004820152603360248201527f426174636856616c696461746f724465706f7369746f723a20696e636f7272656044820152720c6e840e6d2cedcc2e8eae4ca40d8cadccee8d606b1b606482015260840161012e565b6002546001600160a01b031663228951188686848181106106b4576106b4610b0d565b905060200201358f8f858181106106cd576106cd610b0d565b90506020028101906106df9190610b4a565b8f8f878181106106f1576106f1610b0d565b90506020028101906107039190610b4a565b8f8f8981811061071557610715610b0d565b90506020028101906107279190610b4a565b8f8f8b81811061073957610739610b0d565b905060200201356040518963ffffffff1660e01b81526004016107629796959493929190610bba565b6000604051808303818588803b15801561077b57600080fd5b505af115801561078f573d6000803e3d6000fd5b50505050508060010190506104cd565b5060408051338152602081018490527f2d8a08b6430a894aea608bcaa6013d5d3e263bc49110605e4d4ba76930ae5c29910160405180910390a1505050505050505050505050565b6107ef610825565b6001600160a01b03811661081957604051631e4fbdf760e01b81526000600482015260240161012e565b610822816108aa565b50565b6001546001600160a01b036101009091041633146102b65760405163118cdaa760e01b815233600482015260240161012e565b610860610963565b6001805460ff191690557f5db9ee0a495bf2e6ff9c91a7834c1ba4fdd244a5e8aa4e537bd38aeae4b073aa335b6040516001600160a01b03909116815260200160405180910390a1565b600180546001600160a01b03838116610100818102610100600160a81b031985161790945560405193909204169182907f8be0079c531659141344cd1fd0a4f28419497f9722a3daafe3b4186f6b6457e090600090a35050565b61090c61093f565b6001805460ff1916811790557f62e78cea01bee320cd4e420270b5ea74000d11b0c9f74754ebdbfc544b05a2583361088d565b60015460ff16156102b65760405163d93c066560e01b815260040160405180910390fd5b60015460ff166102b657604051638dfc202b60e01b815260040160405180910390fd5b60008083601f84011261099857600080fd5b50813567ffffffffffffffff8111156109b057600080fd5b6020830191508360208260051b85010111156109cb57600080fd5b9250929050565b60008060008060008060008060008060a08b8d0312156109f157600080fd5b8a3567ffffffffffffffff811115610a0857600080fd5b610a148d828e01610986565b909b5099505060208b013567ffffffffffffffff811115610a3457600080fd5b610a408d828e01610986565b90995097505060408b013567ffffffffffffffff811115610a6057600080fd5b610a6c8d828e01610986565b90975095505060608b013567ffffffffffffffff811115610a8c57600080fd5b610a988d828e01610986565b90955093505060808b013567ffffffffffffffff811115610ab857600080fd5b610ac48d828e01610986565b915080935050809150509295989b9194979a5092959850565b600060208284031215610aef57600080fd5b81356001600160a01b0381168114610b0657600080fd5b9392505050565b634e487b7160e01b600052603260045260246000fd5b80820180821115610b4457634e487b7160e01b600052601160045260246000fd5b92915050565b6000808335601e19843603018112610b6157600080fd5b83018035915067ffffffffffffffff821115610b7c57600080fd5b6020019150368190038213156109cb57600080fd5b81835281816020850137506000828201602090810191909152601f909101601f19169091010190565b608081526000610bce60808301898b610b91565b8281036020840152610be181888a610b91565b90508281036040840152610bf6818688610b91565b9150508260608301529897505050505050505056fea26469706673582212202268f7dfb083816a6802118f9a412edb14c7a2335709d922f0acc941dd85838764736f6c634300081c0033",
  "linkReferences": {},
  "deployedLinkReferences": {}
}