{
  "contracts/BatchValidatorDepositor.sol": {
    "BatchValidatorDepositor": {
      "abi": [
        {
          "inputs": [
            {
              "internalType": "bool",
              "name": "mainnet",
              "type": "bool"
            },
            {
              "internalType": "address",
              "name": "depositContract_",
              "type": "address"
            }
          ],
          "stateMutability": "nonpayable",
          "type": "constructor"
        },
        {
          "inputs": [],
          "name": "EnforcedPause",
          "type": "error"
        },
        {
          "inputs": [],
          "name": "ExpectedPause",
          "type": "error"
        },
        {
          "inputs": [
            {
              "internalType": "address",
              "name": "owner",
              "type": "address"
            }
          ],
          "name": "OwnableInvalidOwner",
          "type": "error"
        },
        {
          "inputs": [
            {
              "internalType": "address",
              "name": "account",
              "type": "address"
            }
          ],
          "name": "OwnableUnauthorizedAccount",
          "type": "error"
        },
        {
          "anonymous": false,
          "inputs": [
            {
              "indexed": false,
              "internalType": "address",
              "name": "from",
              "type": "address"
            },
            {
              "indexed": false,
              "internalType": "uint256",
              "name": "nodesAmount",
              "type": "uint256"
            },
            {
              "indexed": false,
              "internalType": "uint256",
              "name": "totalCollateral",
              "type": "uint256"
            }
          ],
          "name": "DepositEvent",
          "type": "event"
        },
        {
          "anonymous": false,
          "inputs": [
            {
              "indexed": true,
              "internalType": "address",
              "name": "previousOwner",
              "type": "address"
            },
            {
              "indexed": true,
              "internalType": "address",
              "name": "newOwner",
              "type": "address"
            }
          ],
          "name": "OwnershipTransferred",
          "type": "event"
        },
        {
          "anonymous": false,
          "inputs": [
            {
              "indexed": false,
              "internalType": "address",
              "name": "account",
              "type": "address"
            }
          ],
          "name": "Paused",
          "type": "event"
        },
        {
          "anonymous": false,
          "inputs": [
            {
              "indexed": false,
              "internalType": "address",
              "name": "account",
              "type": "address"
            }
          ],
          "name": "Unpaused",
          "type": "event"
        },
        {
          "inputs": [],
          "name": "credentialsLength",
          "outputs": [
            {
              "internalType": "uint256",
              "name": "",
              "type": "uint256"
            }
          ],
          "stateMutability": "view",
          "type": "function"
        },
        {
          "inputs": [
            {
              "internalType": "bytes[]",
              "name": "pubkeys",
              "type": "bytes[]"
            },
            {
              "internalType": "bytes[]",
              "name": "withdrawal_credentials",
              "type": "bytes[]"
            },
            {
              "internalType": "bytes[]",
              "name": "signatures",
              "type": "bytes[]"
            },
            {
              "internalType": "bytes32[]",
              "name": "deposit_data_roots",
              "type": "bytes32[]"
            },
            {
              "internalType": "uint256[]",
              "name": "collateral",
              "type": "uint256[]"
            }
          ],
          "name": "deposit",
          "outputs": [],
          "stateMutability": "payable",
          "type": "function"
        },
        {
          "inputs": [],
          "name": "depositContract",
          "outputs": [
            {
              "internalType": "contract IDepositContract",
              "name": "",
              "type": "address"
            }
          ],
          "stateMutability": "view",
          "type": "function"
        },
        {
          "inputs": [],
          "name": "nodesMaxAmount",
          "outputs": [
            {
              "internalType": "uint256",
              "name": "",
              "type": "uint256"
            }
          ],
          "stateMutability": "view",
          "type": "function"
        },
        {
          "inputs": [],
          "name": "nodesMinAmount",
          "outputs": [
            {
              "internalType": "uint256",
              "name": "",
              "type": "uint256"
            }
          ],
          "stateMutability": "view",
          "type": "function"
        },
        {
          "inputs": [],
          "name": "owner",
          "outputs": [
            {
              "internalType": "address",
              "name": "",
              "type": "address"
            }
          ],
          "stateMutability": "view",
          "type": "function"
        },
        {
          "inputs": [],
          "name": "pause",
          "outputs": [],
          "stateMutability": "nonpayable",
          "type": "function"
        },
        {
          "inputs": [],
          "name": "paused",
          "outputs": [
            {
              "internalType": "bool",
              "name": "",
              "type": "bool"
            }
          ],
          "stateMutability": "view",
          "type": "function"
        },
        {
          "inputs": [],
          "name": "pubkeyLength",
          "outputs": [
            {
              "internalType": "uint256",
              "name": "",
              "type": "uint256"
            }
          ],
          "stateMutability": "view",
          "type": "function"
        },
        {
          "inputs": [],
          "name": "renounceOwnership",
          "outputs": [],
          "stateMutability": "nonpayable",
          "type": "function"
        },
        {
          "inputs": [],
          "name": "signatureLength",
          "outputs": [
            {
              "internalType": "uint256",
              "name": "",
              "type": "uint256"
            }
          ],
          "stateMutability": "view",
          "type": "function"
        },
        {
          "inputs": [
            {
              "internalType": "address",
              "name": "newOwner",
              "type": "address"
            }
          ],
          "name": "transferOwnership",
          "outputs": [],
          "stateMutability": "nonpayable",
          "type": "function"
        },
        {
          "inputs": [],
          "name": "unpause",
          "outputs": [],
          "stateMutability": "nonpayable",
          "type": "function"
        },
        {
          "stateMutability": "payable",
          "type": "receive"
        }
      ],
      "evm": {
        "bytecode": {
          "linkReferences": {},
          "object": "608060405234801561001057600080fd5b50604051610df6380380610df683398101604081905261002f91610152565b6000805460ff19169055338061005f57604051631e4fbdf760e01b81526000600482015260240160405180910390fd5b610068816100f9565b5081151560010361009a57600180546001600160a01b0319166f219ab540356cbb839cbe05303d7705fa1790556100f2565b6001600160a01b0381166000036100d657600180546001600160a01b031916738c5fecdc472e27bc447696f431e425d02dd46a8c1790556100f2565b600180546001600160a01b0319166001600160a01b0383161790555b505061019d565b600080546001600160a01b03838116610100818102610100600160a81b0319851617855560405193049190911692909183917f8be0079c531659141344cd1fd0a4f28419497f9722a3daafe3b4186f6b6457e091a35050565b6000806040838503121561016557600080fd5b8251801515811461017557600080fd5b60208401519092506001600160a01b038116811461019257600080fd5b809150509250929050565b610c4a806101ac6000396000f3fe6080604052600436106100c65760003560e01c80638456cb591161007f578063c09bb1db11610059578063c09bb1db1461023e578063e94ad65b14610251578063f2fde38b14610271578063f4fbdfac1461029157600080fd5b80638456cb59146101dd5780638da5cb5b146101f2578063a5ab1d311461022957600080fd5b80631b9a93231461013c5780633f4ba83a1461016457806343ba591d1461017b5780634903e8be146101905780635c975abb146101a5578063715018a6146101c857600080fd5b366101375760405162461bcd60e51b815260206004820152603660248201527f426174636856616c696461746f724465706f7369746f723a20646f206e6f742060448201527573656e6420455448206469726563746c79206865726560501b60648201526084015b60405180910390fd5b600080fd5b34801561014857600080fd5b50610151606081565b6040519081526020015b60405180910390f35b34801561017057600080fd5b506101796102a6565b005b34801561018757600080fd5b50610151606481565b34801561019c57600080fd5b50610151603081565b3480156101b157600080fd5b5060005460ff16604051901515815260200161015b565b3480156101d457600080fd5b506101796102b8565b3480156101e957600080fd5b506101796102ca565b3480156101fe57600080fd5b5060005461010090046001600160a01b03165b6040516001600160a01b03909116815260200161015b565b34801561023557600080fd5b50610151602081565b61017961024c3660046109db565b6102da565b34801561025d57600080fd5b50600154610211906001600160a01b031681565b34801561027d57600080fd5b5061017961028c366004610ae6565b6107ef565b34801561029d57600080fd5b50610151600181565b6102ae61082d565b6102b6610860565b565b6102c061082d565b6102b660006108b2565b6102d261082d565b6102b661090b565b6102e2610948565b88600181108015906102f5575060648111155b61037c5760405162461bcd60e51b815260206004820152604c60248201527f426174636856616c696461746f724465706f7369746f723a20796f752063616e60448201527f206465706f736974206f6e6c79203120746f20313030206e6f6465732070657260648201526b103a3930b739b0b1ba34b7b760a11b608482015260a40161012e565b878114801561038a57508581145b801561039557508381145b80156103a057508181145b6104125760405162461bcd60e51b815260206004820152603a60248201527f426174636856616c696461746f724465706f7369746f723a20616d6f756e742060448201527f6f6620706172616d657465727320646f206e6f74206d61746368000000000000606482015260840161012e565b6000805b8381101561044c5784848281811061043057610430610b16565b90506020020135826104429190610b2c565b9150600101610416565b508034146104cc5760405162461bcd60e51b815260206004820152604160248201527f426174636856616c696461746f724465706f7369746f723a2070726f7669646560448201527f642045544820646f6573206e6f74206d617463682072657175697265642045546064820152600960fb1b608482015260a40161012e565b60005b828110156107a15760308d8d838181106104eb576104eb610b16565b90506020028101906104fd9190610b53565b9050146105655760405162461bcd60e51b815260206004820152603060248201527f426174636856616c696461746f724465706f7369746f723a20696e636f72726560448201526f0c6e840e0eac4d6caf240d8cadccee8d60831b606482015260840161012e565b60208b8b8381811061057957610579610b16565b905060200281019061058b9190610b53565b905014610602576040805162461bcd60e51b81526020600482015260248101919091527f426174636856616c696461746f724465706f7369746f723a20696e636f72726560448201527f6374207769746864726177616c2063726564656e7469616c73206c656e677468606482015260840161012e565b606089898381811061061657610616610b16565b90506020028101906106289190610b53565b9050146106935760405162461bcd60e51b815260206004820152603360248201527f426174636856616c696461746f724465706f7369746f723a20696e636f7272656044820152720c6e840e6d2cedcc2e8eae4ca40d8cadccee8d606b1b606482015260840161012e565b6001546001600160a01b031663228951188686848181106106b6576106b6610b16565b905060200201358f8f858181106106cf576106cf610b16565b90506020028101906106e19190610b53565b8f8f878181106106f3576106f3610b16565b90506020028101906107059190610b53565b8f8f8981811061071757610717610b16565b90506020028101906107299190610b53565b8f8f8b81811061073b5761073b610b16565b905060200201356040518963ffffffff1660e01b81526004016107649796959493929190610bc3565b6000604051808303818588803b15801561077d57600080fd5b505af1158015610791573d6000803e3d6000fd5b50505050508060010190506104cf565b506040805133815260208101849052348183015290517fad40ae5dc69974ba932d08b0a608e89109412d41d04850f5196f144875ae26609181900360600190a1505050505050505050505050565b6107f761082d565b6001600160a01b03811661082157604051631e4fbdf760e01b81526000600482015260240161012e565b61082a816108b2565b50565b6000546001600160a01b036101009091041633146102b65760405163118cdaa760e01b815233600482015260240161012e565b61086861096c565b6000805460ff191690557f5db9ee0a495bf2e6ff9c91a7834c1ba4fdd244a5e8aa4e537bd38aeae4b073aa335b6040516001600160a01b03909116815260200160405180910390a1565b600080546001600160a01b03838116610100818102610100600160a81b0319851617855560405193049190911692909183917f8be0079c531659141344cd1fd0a4f28419497f9722a3daafe3b4186f6b6457e091a35050565b610913610948565b6000805460ff191660011790557f62e78cea01bee320cd4e420270b5ea74000d11b0c9f74754ebdbfc544b05a2586108953390565b60005460ff16156102b65760405163d93c066560e01b815260040160405180910390fd5b60005460ff166102b657604051638dfc202b60e01b815260040160405180910390fd5b60008083601f8401126109a157600080fd5b50813567ffffffffffffffff8111156109b957600080fd5b6020830191508360208260051b85010111156109d457600080fd5b9250929050565b60008060008060008060008060008060a08b8d0312156109fa57600080fd5b8a3567ffffffffffffffff811115610a1157600080fd5b610a1d8d828e0161098f565b909b5099505060208b013567ffffffffffffffff811115610a3d57600080fd5b610a498d828e0161098f565b90995097505060408b013567ffffffffffffffff811115610a6957600080fd5b610a758d828e0161098f565b90975095505060608b013567ffffffffffffffff811115610a9557600080fd5b610aa18d828e0161098f565b90955093505060808b013567ffffffffffffffff811115610ac157600080fd5b610acd8d828e0161098f565b915080935050809150509295989b9194979a5092959850565b600060208284031215610af857600080fd5b81356001600160a01b0381168114610b0f57600080fd5b9392505050565b634e487b7160e01b600052603260045260246000fd5b80820180821115610b4d57634e487b7160e01b600052601160045260246000fd5b92915050565b6000808335601e19843603018112610b6a57600080fd5b83018035915067ffffffffffffffff821115610b8557600080fd5b6020019150368190038213156109d457600080fd5b81835281816020850137506000828201602090810191909152601f909101601f19169091010190565b608081526000610bd760808301898b610b9a565b8281036020840152610bea81888a610b9a565b90508281036040840152610bff818688610b9a565b9150508260608301529897505050505050505056fea26469706673582212206b3e6c9b09cacbcce41335f86ceffb2dc0790cea9b7a4babef22fcb4b38c1cf964736f6c634300081c0033",
          "opcodes": "PUSH1 0x80 PUSH1 0x40 MSTORE CALLVALUE DUP1 ISZERO PUSH2 0x10 JUMPI PUSH1 0x0 DUP1 REVERT JUMPDEST POP PUSH1 0x40 MLOAD PUSH2 0xDF6 CODESIZE SUB DUP1 PUSH2 0xDF6 DUP4 CODECOPY DUP2 ADD PUSH1 0x40 DUP2 SWAP1 MSTORE PUSH2 0x2F SWAP2 PUSH2 0x152 JUMP JUMPDEST PUSH1 0x0 DUP1 SLOAD PUSH1 0xFF NOT AND SWAP1 SSTORE CALLER DUP1 PUSH2 0x5F JUMPI PUSH1 0x40 MLOAD PUSH4 0x1E4FBDF7 PUSH1 0xE0 SHL DUP2 MSTORE PUSH1 0x0 PUSH1 0x4 DUP3 ADD MSTORE PUSH1 0x24 ADD PUSH1 0x40 MLOAD DUP1 SWAP2 SUB SWAP1 REVERT JUMPDEST PUSH2 0x68 DUP2 PUSH2 0xF9 JUMP JUMPDEST POP DUP2 ISZERO ISZERO PUSH1 0x1 SUB PUSH2 0x9A JUMPI PUSH1 0x1 DUP1 SLOAD PUSH1 0x1 PUSH1 0x1 PUSH1 0xA0 SHL SUB NOT AND PUSH16 0x219AB540356CBB839CBE05303D7705FA OR SWAP1 SSTORE PUSH2 0xF2 JUMP JUMPDEST PUSH1 0x1 PUSH1 0x1 PUSH1 0xA0 SHL SUB DUP2 AND PUSH1 0x0 SUB PUSH2 0xD6 JUMPI PUSH1 0x1 DUP1 SLOAD PUSH1 0x1 PUSH1 0x1 PUSH1 0xA0 SHL SUB NOT AND PUSH20 0x8C5FECDC472E27BC447696F431E425D02DD46A8C OR SWAP1 SSTORE PUSH2 0xF2 JUMP JUMPDEST PUSH1 0x1 DUP1 SLOAD PUSH1 0x1 PUSH1 0x1 PUSH1 0xA0 SHL SUB NOT AND PUSH1 0x1 PUSH1 0x1 PUSH1 0xA0 SHL SUB DUP4 AND OR SWAP1 SSTORE JUMPDEST POP POP PUSH2 0x19D JUMP JUMPDEST PUSH1 0x0 DUP1 SLOAD PUSH1 0x1 PUSH1 0x1 PUSH1 0xA0 SHL SUB DUP4 DUP2 AND PUSH2 0x100 DUP2 DUP2 MUL PUSH2 0x100 PUSH1 0x1 PUSH1 0xA8 SHL SUB NOT DUP6 AND OR DUP6 SSTORE PUSH1 0x40 MLOAD SWAP4 DIV SWAP2 SWAP1 SWAP2 AND SWAP3 SWAP1 SWAP2 DUP4 SWAP2 PUSH32 0x8BE0079C531659141344CD1FD0A4F28419497F9722A3DAAFE3B4186F6B6457E0 SWAP2 LOG3 POP POP JUMP JUMPDEST PUSH1 0x0 DUP1 PUSH1 0x40 DUP4 DUP6 SUB SLT ISZERO PUSH2 0x165 JUMPI PUSH1 0x0 DUP1 REVERT JUMPDEST DUP3 MLOAD DUP1 ISZERO ISZERO DUP2 EQ PUSH2 0x175 JUMPI PUSH1 0x0 DUP1 REVERT JUMPDEST PUSH1 0x20 DUP5 ADD MLOAD SWAP1 SWAP3 POP PUSH1 0x1 PUSH1 0x1 PUSH1 0xA0 SHL SUB DUP2 AND DUP2 EQ PUSH2 0x192 JUMPI PUSH1 0x0 DUP1 REVERT JUMPDEST DUP1 SWAP2 POP POP SWAP3 POP SWAP3 SWAP1 POP JUMP JUMPDEST PUSH2 0xC4A DUP1 PUSH2 0x1AC PUSH1 0x0 CODECOPY PUSH1 0x0 RETURN INVALID PUSH1 0x80 PUSH1 0x40 MSTORE PUSH1 0x4 CALLDATASIZE LT PUSH2 0xC6 JUMPI PUSH1 0x0 CALLDATALOAD PUSH1 0xE0 SHR DUP1 PUSH4 0x8456CB59 GT PUSH2 0x7F JUMPI DUP1 PUSH4 0xC09BB1DB GT PUSH2 0x59 JUMPI DUP1 PUSH4 0xC09BB1DB EQ PUSH2 0x23E JUMPI DUP1 PUSH4 0xE94AD65B EQ PUSH2 0x251 JUMPI DUP1 PUSH4 0xF2FDE38B EQ PUSH2 0x271 JUMPI DUP1 PUSH4 0xF4FBDFAC EQ PUSH2 0x291 JUMPI PUSH1 0x0 DUP1 REVERT JUMPDEST DUP1 PUSH4 0x8456CB59 EQ PUSH2 0x1DD JUMPI DUP1 PUSH4 0x8DA5CB5B EQ PUSH2 0x1F2 JUMPI DUP1 PUSH4 0xA5AB1D31 EQ PUSH2 0x229 JUMPI PUSH1 0x0 DUP1 REVERT JUMPDEST DUP1 PUSH4 0x1B9A9323 EQ PUSH2 0x13C JUMPI DUP1 PUSH4 0x3F4BA83A EQ PUSH2 0x164 JUMPI DUP1 PUSH4 0x43BA591D EQ PUSH2 0x17B JUMPI DUP1 PUSH4 0x4903E8BE EQ PUSH2 0x190 JUMPI DUP1 PUSH4 0x5C975ABB EQ PUSH2 0x1A5 JUMPI DUP1 PUSH4 0x715018A6 EQ PUSH2 0x1C8 JUMPI PUSH1 0x0 DUP1 REVERT JUMPDEST CALLDATASIZE PUSH2 0x137 JUMPI PUSH1 0x40 MLOAD PUSH3 0x461BCD PUSH1 0xE5 SHL DUP2 MSTORE PUSH1 0x20 PUSH1 0x4 DUP3 ADD MSTORE PUSH1 0x36 PUSH1 0x24 DUP3 ADD MSTORE PUSH32 0x426174636856616C696461746F724465706F7369746F723A20646F206E6F7420 PUSH1 0x44 DUP3 ADD MSTORE PUSH22 0x73656E6420455448206469726563746C792068657265 PUSH1 0x50 SHL PUSH1 0x64 DUP3 ADD MSTORE PUSH1 0x84 ADD JUMPDEST PUSH1 0x40 MLOAD DUP1 SWAP2 SUB SWAP1 REVERT JUMPDEST PUSH1 0x0 DUP1 REVERT JUMPDEST CALLVALUE DUP1 ISZERO PUSH2 0x148 JUMPI PUSH1 0x0 DUP1 REVERT JUMPDEST POP PUSH2 0x151 PUSH1 0x60 DUP2 JUMP JUMPDEST PUSH1 0x40 MLOAD SWAP1 DUP2 MSTORE PUSH1 0x20 ADD JUMPDEST PUSH1 0x40 MLOAD DUP1 SWAP2 SUB SWAP1 RETURN JUMPDEST CALLVALUE DUP1 ISZERO PUSH2 0x170 JUMPI PUSH1 0x0 DUP1 REVERT JUMPDEST POP PUSH2 0x179 PUSH2 0x2A6 JUMP JUMPDEST STOP JUMPDEST CALLVALUE DUP1 ISZERO PUSH2 0x187 JUMPI PUSH1 0x0 DUP1 REVERT JUMPDEST POP PUSH2 0x151 PUSH1 0x64 DUP2 JUMP JUMPDEST CALLVALUE DUP1 ISZERO PUSH2 0x19C JUMPI PUSH1 0x0 DUP1 REVERT JUMPDEST POP PUSH2 0x151 PUSH1 0x30 DUP2 JUMP JUMPDEST CALLVALUE DUP1 ISZERO PUSH2 0x1B1 JUMPI PUSH1 0x0 DUP1 REVERT JUMPDEST POP PUSH1 0x0 SLOAD PUSH1 0xFF AND PUSH1 0x40 MLOAD SWAP1 ISZERO ISZERO DUP2 MSTORE PUSH1 0x20 ADD PUSH2 0x15B JUMP JUMPDEST CALLVALUE DUP1 ISZERO PUSH2 0x1D4 JUMPI PUSH1 0x0 DUP1 REVERT JUMPDEST POP PUSH2 0x179 PUSH2 0x2B8 JUMP JUMPDEST CALLVALUE DUP1 ISZERO PUSH2 0x1E9 JUMPI PUSH1 0x0 DUP1 REVERT JUMPDEST POP PUSH2 0x179 PUSH2 0x2CA JUMP JUMPDEST CALLVALUE DUP1 ISZERO PUSH2 0x1FE JUMPI PUSH1 0x0 DUP1 REVERT JUMPDEST POP PUSH1 0x0 SLOAD PUSH2 0x100 SWAP1 DIV PUSH1 0x1 PUSH1 0x1 PUSH1 0xA0 SHL SUB AND JUMPDEST PUSH1 0x40 MLOAD PUSH1 0x1 PUSH1 0x1 PUSH1 0xA0 SHL SUB SWAP1 SWAP2 AND DUP2 MSTORE PUSH1 0x20 ADD PUSH2 0x15B JUMP JUMPDEST CALLVALUE DUP1 ISZERO PUSH2 0x235 JUMPI PUSH1 0x0 DUP1 REVERT JUMPDEST POP PUSH2 0x151 PUSH1 0x20 DUP2 JUMP JUMPDEST PUSH2 0x179 PUSH2 0x24C CALLDATASIZE PUSH1 0x4 PUSH2 0x9DB JUMP JUMPDEST PUSH2 0x2DA JUMP JUMPDEST CALLVALUE DUP1 ISZERO PUSH2 0x25D JUMPI PUSH1 0x0 DUP1 REVERT JUMPDEST POP PUSH1 0x1 SLOAD PUSH2 0x211 SWAP1 PUSH1 0x1 PUSH1 0x1 PUSH1 0xA0 SHL SUB AND DUP2 JUMP JUMPDEST CALLVALUE DUP1 ISZERO PUSH2 0x27D JUMPI PUSH1 0x0 DUP1 REVERT JUMPDEST POP PUSH2 0x179 PUSH2 0x28C CALLDATASIZE PUSH1 0x4 PUSH2 0xAE6 JUMP JUMPDEST PUSH2 0x7EF JUMP JUMPDEST CALLVALUE DUP1 ISZERO PUSH2 0x29D JUMPI PUSH1 0x0 DUP1 REVERT JUMPDEST POP PUSH2 0x151 PUSH1 0x1 DUP2 JUMP JUMPDEST PUSH2 0x2AE PUSH2 0x82D JUMP JUMPDEST PUSH2 0x2B6 PUSH2 0x860 JUMP JUMPDEST JUMP JUMPDEST PUSH2 0x2C0 PUSH2 0x82D JUMP JUMPDEST PUSH2 0x2B6 PUSH1 0x0 PUSH2 0x8B2 JUMP JUMPDEST PUSH2 0x2D2 PUSH2 0x82D JUMP JUMPDEST PUSH2 0x2B6 PUSH2 0x90B JUMP JUMPDEST PUSH2 0x2E2 PUSH2 0x948 JUMP JUMPDEST DUP9 PUSH1 0x1 DUP2 LT DUP1 ISZERO SWAP1 PUSH2 0x2F5 JUMPI POP PUSH1 0x64 DUP2 GT ISZERO JUMPDEST PUSH2 0x37C JUMPI PUSH1 0x40 MLOAD PUSH3 0x461BCD PUSH1 0xE5 SHL DUP2 MSTORE PUSH1 0x20 PUSH1 0x4 DUP3 ADD MSTORE PUSH1 0x4C PUSH1 0x24 DUP3 ADD MSTORE PUSH32 0x426174636856616C696461746F724465706F7369746F723A20796F752063616E PUSH1 0x44 DUP3 ADD MSTORE PUSH32 0x206465706F736974206F6E6C79203120746F20313030206E6F64657320706572 PUSH1 0x64 DUP3 ADD MSTORE PUSH12 0x103A3930B739B0B1BA34B7B7 PUSH1 0xA1 SHL PUSH1 0x84 DUP3 ADD MSTORE PUSH1 0xA4 ADD PUSH2 0x12E JUMP JUMPDEST DUP8 DUP2 EQ DUP1 ISZERO PUSH2 0x38A JUMPI POP DUP6 DUP2 EQ JUMPDEST DUP1 ISZERO PUSH2 0x395 JUMPI POP DUP4 DUP2 EQ JUMPDEST DUP1 ISZERO PUSH2 0x3A0 JUMPI POP DUP2 DUP2 EQ JUMPDEST PUSH2 0x412 JUMPI PUSH1 0x40 MLOAD PUSH3 0x461BCD PUSH1 0xE5 SHL DUP2 MSTORE PUSH1 0x20 PUSH1 0x4 DUP3 ADD MSTORE PUSH1 0x3A PUSH1 0x24 DUP3 ADD MSTORE PUSH32 0x426174636856616C696461746F724465706F7369746F723A20616D6F756E7420 PUSH1 0x44 DUP3 ADD MSTORE PUSH32 0x6F6620706172616D657465727320646F206E6F74206D61746368000000000000 PUSH1 0x64 DUP3 ADD MSTORE PUSH1 0x84 ADD PUSH2 0x12E JUMP JUMPDEST PUSH1 0x0 DUP1 JUMPDEST DUP4 DUP2 LT ISZERO PUSH2 0x44C JUMPI DUP5 DUP5 DUP3 DUP2 DUP2 LT PUSH2 0x430 JUMPI PUSH2 0x430 PUSH2 0xB16 JUMP JUMPDEST SWAP1 POP PUSH1 0x20 MUL ADD CALLDATALOAD DUP3 PUSH2 0x442 SWAP2 SWAP1 PUSH2 0xB2C JUMP JUMPDEST SWAP2 POP PUSH1 0x1 ADD PUSH2 0x416 JUMP JUMPDEST POP DUP1 CALLVALUE EQ PUSH2 0x4CC JUMPI PUSH1 0x40 MLOAD PUSH3 0x461BCD PUSH1 0xE5 SHL DUP2 MSTORE PUSH1 0x20 PUSH1 0x4 DUP3 ADD MSTORE PUSH1 0x41 PUSH1 0x24 DUP3 ADD MSTORE PUSH32 0x426174636856616C696461746F724465706F7369746F723A2070726F76696465 PUSH1 0x44 DUP3 ADD MSTORE PUSH32 0x642045544820646F6573206E6F74206D61746368207265717569726564204554 PUSH1 0x64 DUP3 ADD MSTORE PUSH1 0x9 PUSH1 0xFB SHL PUSH1 0x84 DUP3 ADD MSTORE PUSH1 0xA4 ADD PUSH2 0x12E JUMP JUMPDEST PUSH1 0x0 JUMPDEST DUP3 DUP2 LT ISZERO PUSH2 0x7A1 JUMPI PUSH1 0x30 DUP14 DUP14 DUP4 DUP2 DUP2 LT PUSH2 0x4EB JUMPI PUSH2 0x4EB PUSH2 0xB16 JUMP JUMPDEST SWAP1 POP PUSH1 0x20 MUL DUP2 ADD SWAP1 PUSH2 0x4FD SWAP2 SWAP1 PUSH2 0xB53 JUMP JUMPDEST SWAP1 POP EQ PUSH2 0x565 JUMPI PUSH1 0x40 MLOAD PUSH3 0x461BCD PUSH1 0xE5 SHL DUP2 MSTORE PUSH1 0x20 PUSH1 0x4 DUP3 ADD MSTORE PUSH1 0x30 PUSH1 0x24 DUP3 ADD MSTORE PUSH32 0x426174636856616C696461746F724465706F7369746F723A20696E636F727265 PUSH1 0x44 DUP3 ADD MSTORE PUSH16 0xC6E840E0EAC4D6CAF240D8CADCCEE8D PUSH1 0x83 SHL PUSH1 0x64 DUP3 ADD MSTORE PUSH1 0x84 ADD PUSH2 0x12E JUMP JUMPDEST PUSH1 0x20 DUP12 DUP12 DUP4 DUP2 DUP2 LT PUSH2 0x579 JUMPI PUSH2 0x579 PUSH2 0xB16 JUMP JUMPDEST SWAP1 POP PUSH1 0x20 MUL DUP2 ADD SWAP1 PUSH2 0x58B SWAP2 SWAP1 PUSH2 0xB53 JUMP JUMPDEST SWAP1 POP EQ PUSH2 0x602 JUMPI PUSH1 0x40 DUP1 MLOAD PUSH3 0x461BCD PUSH1 0xE5 SHL DUP2 MSTORE PUSH1 0x20 PUSH1 0x4 DUP3 ADD MSTORE PUSH1 0x24 DUP2 ADD SWAP2 SWAP1 SWAP2 MSTORE PUSH32 0x426174636856616C696461746F724465706F7369746F723A20696E636F727265 PUSH1 0x44 DUP3 ADD MSTORE PUSH32 0x6374207769746864726177616C2063726564656E7469616C73206C656E677468 PUSH1 0x64 DUP3 ADD MSTORE PUSH1 0x84 ADD PUSH2 0x12E JUMP JUMPDEST PUSH1 0x60 DUP10 DUP10 DUP4 DUP2 DUP2 LT PUSH2 0x616 JUMPI PUSH2 0x616 PUSH2 0xB16 JUMP JUMPDEST SWAP1 POP PUSH1 0x20 MUL DUP2 ADD SWAP1 PUSH2 0x628 SWAP2 SWAP1 PUSH2 0xB53 JUMP JUMPDEST SWAP1 POP EQ PUSH2 0x693 JUMPI PUSH1 0x40 MLOAD PUSH3 0x461BCD PUSH1 0xE5 SHL DUP2 MSTORE PUSH1 0x20 PUSH1 0x4 DUP3 ADD MSTORE PUSH1 0x33 PUSH1 0x24 DUP3 ADD MSTORE PUSH32 0x426174636856616C696461746F724465706F7369746F723A20696E636F727265 PUSH1 0x44 DUP3 ADD MSTORE PUSH19 0xC6E840E6D2CEDCC2E8EAE4CA40D8CADCCEE8D PUSH1 0x6B SHL PUSH1 0x64 DUP3 ADD MSTORE PUSH1 0x84 ADD PUSH2 0x12E JUMP JUMPDEST PUSH1 0x1 SLOAD PUSH1 0x1 PUSH1 0x1 PUSH1 0xA0 SHL SUB AND PUSH4 0x22895118 DUP7 DUP7 DUP5 DUP2 DUP2 LT PUSH2 0x6B6 JUMPI PUSH2 0x6B6 PUSH2 0xB16 JUMP JUMPDEST SWAP1 POP PUSH1 0x20 MUL ADD CALLDATALOAD DUP16 DUP16 DUP6 DUP2 DUP2 LT PUSH2 0x6CF JUMPI PUSH2 0x6CF PUSH2 0xB16 JUMP JUMPDEST SWAP1 POP PUSH1 0x20 MUL DUP2 ADD SWAP1 PUSH2 0x6E1 SWAP2 SWAP1 PUSH2 0xB53 JUMP JUMPDEST DUP16 DUP16 DUP8 DUP2 DUP2 LT PUSH2 0x6F3 JUMPI PUSH2 0x6F3 PUSH2 0xB16 JUMP JUMPDEST SWAP1 POP PUSH1 0x20 MUL DUP2 ADD SWAP1 PUSH2 0x705 SWAP2 SWAP1 PUSH2 0xB53 JUMP JUMPDEST DUP16 DUP16 DUP10 DUP2 DUP2 LT PUSH2 0x717 JUMPI PUSH2 0x717 PUSH2 0xB16 JUMP JUMPDEST SWAP1 POP PUSH1 0x20 MUL DUP2 ADD SWAP1 PUSH2 0x729 SWAP2 SWAP1 PUSH2 0xB53 JUMP JUMPDEST DUP16 DUP16 DUP12 DUP2 DUP2 LT PUSH2 0x73B JUMPI PUSH2 0x73B PUSH2 0xB16 JUMP JUMPDEST SWAP1 POP PUSH1 0x20 MUL ADD CALLDATALOAD PUSH1 0x40 MLOAD DUP10 PUSH4 0xFFFFFFFF AND PUSH1 0xE0 SHL DUP2 MSTORE PUSH1 0x4 ADD PUSH2 0x764 SWAP8 SWAP7 SWAP6 SWAP5 SWAP4 SWAP3 SWAP2 SWAP1 PUSH2 0xBC3 JUMP JUMPDEST PUSH1 0x0 PUSH1 0x40 MLOAD DUP1 DUP4 SUB DUP2 DUP6 DUP9 DUP1 EXTCODESIZE ISZERO DUP1 ISZERO PUSH2 0x77D JUMPI PUSH1 0x0 DUP1 REVERT JUMPDEST POP GAS CALL ISZERO DUP1 ISZERO PUSH2 0x791 JUMPI RETURNDATASIZE PUSH1 0x0 DUP1 RETURNDATACOPY RETURNDATASIZE PUSH1 0x0 REVERT JUMPDEST POP POP POP POP POP DUP1 PUSH1 0x1 ADD SWAP1 POP PUSH2 0x4CF JUMP JUMPDEST POP PUSH1 0x40 DUP1 MLOAD CALLER DUP2 MSTORE PUSH1 0x20 DUP2 ADD DUP5 SWAP1 MSTORE CALLVALUE DUP2 DUP4 ADD MSTORE SWAP1 MLOAD PUSH32 0xAD40AE5DC69974BA932D08B0A608E89109412D41D04850F5196F144875AE2660 SWAP2 DUP2 SWAP1 SUB PUSH1 0x60 ADD SWAP1 LOG1 POP POP POP POP POP POP POP POP POP POP POP POP JUMP JUMPDEST PUSH2 0x7F7 PUSH2 0x82D JUMP JUMPDEST PUSH1 0x1 PUSH1 0x1 PUSH1 0xA0 SHL SUB DUP2 AND PUSH2 0x821 JUMPI PUSH1 0x40 MLOAD PUSH4 0x1E4FBDF7 PUSH1 0xE0 SHL DUP2 MSTORE PUSH1 0x0 PUSH1 0x4 DUP3 ADD MSTORE PUSH1 0x24 ADD PUSH2 0x12E JUMP JUMPDEST PUSH2 0x82A DUP2 PUSH2 0x8B2 JUMP JUMPDEST POP JUMP JUMPDEST PUSH1 0x0 SLOAD PUSH1 0x1 PUSH1 0x1 PUSH1 0xA0 SHL SUB PUSH2 0x100 SWAP1 SWAP2 DIV AND CALLER EQ PUSH2 0x2B6 JUMPI PUSH1 0x40 MLOAD PUSH4 0x118CDAA7 PUSH1 0xE0 SHL DUP2 MSTORE CALLER PUSH1 0x4 DUP3 ADD MSTORE PUSH1 0x24 ADD PUSH2 0x12E JUMP JUMPDEST PUSH2 0x868 PUSH2 0x96C JUMP JUMPDEST PUSH1 0x0 DUP1 SLOAD PUSH1 0xFF NOT AND SWAP1 SSTORE PUSH32 0x5DB9EE0A495BF2E6FF9C91A7834C1BA4FDD244A5E8AA4E537BD38AEAE4B073AA CALLER JUMPDEST PUSH1 0x40 MLOAD PUSH1 0x1 PUSH1 0x1 PUSH1 0xA0 SHL SUB SWAP1 SWAP2 AND DUP2 MSTORE PUSH1 0x20 ADD PUSH1 0x40 MLOAD DUP1 SWAP2 SUB SWAP1 LOG1 JUMP JUMPDEST PUSH1 0x0 DUP1 SLOAD PUSH1 0x1 PUSH1 0x1 PUSH1 0xA0 SHL SUB DUP4 DUP2 AND PUSH2 0x100 DUP2 DUP2 MUL PUSH2 0x100 PUSH1 0x1 PUSH1 0xA8 SHL SUB NOT DUP6 AND OR DUP6 SSTORE PUSH1 0x40 MLOAD SWAP4 DIV SWAP2 SWAP1 SWAP2 AND SWAP3 SWAP1 SWAP2 DUP4 SWAP2 PUSH32 0x8BE0079C531659141344CD1FD0A4F28419497F9722A3DAAFE3B4186F6B6457E0 SWAP2 LOG3 POP POP JUMP JUMPDEST PUSH2 0x913 PUSH2 0x948 JUMP JUMPDEST PUSH1 0x0 DUP1 SLOAD PUSH1 0xFF NOT AND PUSH1 0x1 OR SWAP1 SSTORE PUSH32 0x62E78CEA01BEE320CD4E420270B5EA74000D11B0C9F74754EBDBFC544B05A258 PUSH2 0x895 CALLER SWAP1 JUMP JUMPDEST PUSH1 0x0 SLOAD PUSH1 0xFF AND ISZERO PUSH2 0x2B6 JUMPI PUSH1 0x40 MLOAD PUSH4 0xD93C0665 PUSH1 0xE0 SHL DUP2 MSTORE PUSH1 0x4 ADD PUSH1 0x40 MLOAD DUP1 SWAP2 SUB SWAP1 REVERT JUMPDEST PUSH1 0x0 SLOAD PUSH1 0xFF AND PUSH2 0x2B6 JUMPI PUSH1 0x40 MLOAD PUSH4 0x8DFC202B PUSH1 0xE0 SHL DUP2 MSTORE PUSH1 0x4 ADD PUSH1 0x40 MLOAD DUP1 SWAP2 SUB SWAP1 REVERT JUMPDEST PUSH1 0x0 DUP1 DUP4 PUSH1 0x1F DUP5 ADD SLT PUSH2 0x9A1 JUMPI PUSH1 0x0 DUP1 REVERT JUMPDEST POP DUP2 CALLDATALOAD PUSH8 0xFFFFFFFFFFFFFFFF DUP2 GT ISZERO PUSH2 0x9B9 JUMPI PUSH1 0x0 DUP1 REVERT JUMPDEST PUSH1 0x20 DUP4 ADD SWAP2 POP DUP4 PUSH1 0x20 DUP3 PUSH1 0x5 SHL DUP6 ADD ADD GT ISZERO PUSH2 0x9D4 JUMPI PUSH1 0x0 DUP1 REVERT JUMPDEST SWAP3 POP SWAP3 SWAP1 POP JUMP JUMPDEST PUSH1 0x0 DUP1 PUSH1 0x0 DUP1 PUSH1 0x0 DUP1 PUSH1 0x0 DUP1 PUSH1 0x0 DUP1 PUSH1 0xA0 DUP12 DUP14 SUB SLT ISZERO PUSH2 0x9FA JUMPI PUSH1 0x0 DUP1 REVERT JUMPDEST DUP11 CALLDATALOAD PUSH8 0xFFFFFFFFFFFFFFFF DUP2 GT ISZERO PUSH2 0xA11 JUMPI PUSH1 0x0 DUP1 REVERT JUMPDEST PUSH2 0xA1D DUP14 DUP3 DUP15 ADD PUSH2 0x98F JUMP JUMPDEST SWAP1 SWAP12 POP SWAP10 POP POP PUSH1 0x20 DUP12 ADD CALLDATALOAD PUSH8 0xFFFFFFFFFFFFFFFF DUP2 GT ISZERO PUSH2 0xA3D JUMPI PUSH1 0x0 DUP1 REVERT JUMPDEST PUSH2 0xA49 DUP14 DUP3 DUP15 ADD PUSH2 0x98F JUMP JUMPDEST SWAP1 SWAP10 POP SWAP8 POP POP PUSH1 0x40 DUP12 ADD CALLDATALOAD PUSH8 0xFFFFFFFFFFFFFFFF DUP2 GT ISZERO PUSH2 0xA69 JUMPI PUSH1 0x0 DUP1 REVERT JUMPDEST PUSH2 0xA75 DUP14 DUP3 DUP15 ADD PUSH2 0x98F JUMP JUMPDEST SWAP1 SWAP8 POP SWAP6 POP POP PUSH1 0x60 DUP12 ADD CALLDATALOAD PUSH8 0xFFFFFFFFFFFFFFFF DUP2 GT ISZERO PUSH2 0xA95 JUMPI PUSH1 0x0 DUP1 REVERT JUMPDEST PUSH2 0xAA1 DUP14 DUP3 DUP15 ADD PUSH2 0x98F JUMP JUMPDEST SWAP1 SWAP6 POP SWAP4 POP POP PUSH1 0x80 DUP12 ADD CALLDATALOAD PUSH8 0xFFFFFFFFFFFFFFFF DUP2 GT ISZERO PUSH2 0xAC1 JUMPI PUSH1 0x0 DUP1 REVERT JUMPDEST PUSH2 0xACD DUP14 DUP3 DUP15 ADD PUSH2 0x98F JUMP JUMPDEST SWAP2 POP DUP1 SWAP4 POP POP DUP1 SWAP2 POP POP SWAP3 SWAP6 SWAP9 SWAP12 SWAP2 SWAP5 SWAP8 SWAP11 POP SWAP3 SWAP6 SWAP9 POP JUMP JUMPDEST PUSH1 0x0 PUSH1 0x20 DUP3 DUP5 SUB SLT ISZERO PUSH2 0xAF8 JUMPI PUSH1 0x0 DUP1 REVERT JUMPDEST DUP2 CALLDATALOAD PUSH1 0x1 PUSH1 0x1 PUSH1 0xA0 SHL SUB DUP2 AND DUP2 EQ PUSH2 0xB0F JUMPI PUSH1 0x0 DUP1 REVERT JUMPDEST SWAP4 SWAP3 POP POP POP JUMP JUMPDEST PUSH4 0x4E487B71 PUSH1 0xE0 SHL PUSH1 0x0 MSTORE PUSH1 0x32 PUSH1 0x4 MSTORE PUSH1 0x24 PUSH1 0x0 REVERT JUMPDEST DUP1 DUP3 ADD DUP1 DUP3 GT ISZERO PUSH2 0xB4D JUMPI PUSH4 0x4E487B71 PUSH1 0xE0 SHL PUSH1 0x0 MSTORE PUSH1 0x11 PUSH1 0x4 MSTORE PUSH1 0x24 PUSH1 0x0 REVERT JUMPDEST SWAP3 SWAP2 POP POP JUMP JUMPDEST PUSH1 0x0 DUP1 DUP4 CALLDATALOAD PUSH1 0x1E NOT DUP5 CALLDATASIZE SUB ADD DUP2 SLT PUSH2 0xB6A JUMPI PUSH1 0x0 DUP1 REVERT JUMPDEST DUP4 ADD DUP1 CALLDATALOAD SWAP2 POP PUSH8 0xFFFFFFFFFFFFFFFF DUP3 GT ISZERO PUSH2 0xB85 JUMPI PUSH1 0x0 DUP1 REVERT JUMPDEST PUSH1 0x20 ADD SWAP2 POP CALLDATASIZE DUP2 SWAP1 SUB DUP3 SGT ISZERO PUSH2 0x9D4 JUMPI PUSH1 0x0 DUP1 REVERT JUMPDEST DUP2 DUP4 MSTORE DUP2 DUP2 PUSH1 0x20 DUP6 ADD CALLDATACOPY POP PUSH1 0x0 DUP3 DUP3 ADD PUSH1 0x20 SWAP1 DUP2 ADD SWAP2 SWAP1 SWAP2 MSTORE PUSH1 0x1F SWAP1 SWAP2 ADD PUSH1 0x1F NOT AND SWAP1 SWAP2 ADD ADD SWAP1 JUMP JUMPDEST PUSH1 0x80 DUP2 MSTORE PUSH1 0x0 PUSH2 0xBD7 PUSH1 0x80 DUP4 ADD DUP10 DUP12 PUSH2 0xB9A JUMP JUMPDEST DUP3 DUP2 SUB PUSH1 0x20 DUP5 ADD MSTORE PUSH2 0xBEA DUP2 DUP9 DUP11 PUSH2 0xB9A JUMP JUMPDEST SWAP1 POP DUP3 DUP2 SUB PUSH1 0x40 DUP5 ADD MSTORE PUSH2 0xBFF DUP2 DUP7 DUP9 PUSH2 0xB9A JUMP JUMPDEST SWAP2 POP POP DUP3 PUSH1 0x60 DUP4 ADD MSTORE SWAP9 SWAP8 POP POP POP POP POP POP POP POP JUMP INVALID LOG2 PUSH5 0x6970667358 0x22 SLT KECCAK256 PUSH12 0x3E6C9B09CACBCCE41335F86C 0xEF 0xFB 0x2D 0xC0 PUSH26 0xCEA9B7A4BABEF22FCB4B38C1CF964736F6C634300081C003300 "
        },
        "methodIdentifiers": {
          "credentialsLength()": "a5ab1d31",
          "deposit(bytes[],bytes[],bytes[],bytes32[],uint256[])": "c09bb1db",
          "depositContract()": "e94ad65b",
          "nodesMaxAmount()": "43ba591d",
          "nodesMinAmount()": "f4fbdfac",
          "owner()": "8da5cb5b",
          "pause()": "8456cb59",
          "paused()": "5c975abb",
          "pubkeyLength()": "4903e8be",
          "renounceOwnership()": "715018a6",
          "signatureLength()": "1b9a9323",
          "transferOwnership(address)": "f2fde38b",
          "unpause()": "3f4ba83a"
        }
      }
    }
  }
}