{
  "contracts/BatchValidatorDepositor.sol": {
    "BatchValidatorDepositor": {
      "abi": [
        {
          "inputs": [
            {
              "internalType": "bool",
              "name": "mainnet",
              "type": "bool"
            },
            {
              "internalType": "address",
              "name": "depositContract_",
              "type": "address"
            }
          ],
          "stateMutability": "nonpayable",
          "type": "constructor"
        },
        {
          "inputs": [],
          "name": "EnforcedPause",
          "type": "error"
        },
        {
          "inputs": [],
          "name": "ExpectedPause",
          "type": "error"
        },
        {
          "inputs": [
            {
              "internalType": "address",
              "name": "owner",
              "type": "address"
            }
          ],
          "name": "OwnableInvalidOwner",
          "type": "error"
        },
        {
          "inputs": [
            {
              "internalType": "address",
              "name": "account",
              "type": "address"
            }
          ],
          "name": "OwnableUnauthorizedAccount",
          "type": "error"
        },
        {
          "inputs": [],
          "name": "ReentrancyGuardReentrantCall",
          "type": "error"
        },
        {
          "anonymous": false,
          "inputs": [
            {
              "indexed": false,
              "internalType": "address",
              "name": "from",
              "type": "address"
            },
            {
              "indexed": false,
              "internalType": "uint256",
              "name": "nodesAmount",
              "type": "uint256"
            }
          ],
          "name": "DepositEvent",
          "type": "event"
        },
        {
          "anonymous": false,
          "inputs": [
            {
              "indexed": true,
              "internalType": "address",
              "name": "previousOwner",
              "type": "address"
            },
            {
              "indexed": true,
              "internalType": "address",
              "name": "newOwner",
              "type": "address"
            }
          ],
          "name": "OwnershipTransferred",
          "type": "event"
        },
        {
          "anonymous": false,
          "inputs": [
            {
              "indexed": false,
              "internalType": "address",
              "name": "account",
              "type": "address"
            }
          ],
          "name": "Paused",
          "type": "event"
        },
        {
          "anonymous": false,
          "inputs": [
            {
              "indexed": false,
              "internalType": "address",
              "name": "account",
              "type": "address"
            }
          ],
          "name": "Unpaused",
          "type": "event"
        },
        {
          "inputs": [],
          "name": "credentialsLength",
          "outputs": [
            {
              "internalType": "uint256",
              "name": "",
              "type": "uint256"
            }
          ],
          "stateMutability": "view",
          "type": "function"
        },
        {
          "inputs": [
            {
              "internalType": "bytes[]",
              "name": "pubkeys",
              "type": "bytes[]"
            },
            {
              "internalType": "bytes[]",
              "name": "withdrawal_credentials",
              "type": "bytes[]"
            },
            {
              "internalType": "bytes[]",
              "name": "signatures",
              "type": "bytes[]"
            },
            {
              "internalType": "bytes32[]",
              "name": "deposit_data_roots",
              "type": "bytes32[]"
            },
            {
              "internalType": "uint256[]",
              "name": "collateral",
              "type": "uint256[]"
            }
          ],
          "name": "deposit",
          "outputs": [],
          "stateMutability": "payable",
          "type": "function"
        },
        {
          "inputs": [],
          "name": "depositContract",
          "outputs": [
            {
              "internalType": "contract IDepositContract",
              "name": "",
              "type": "address"
            }
          ],
          "stateMutability": "view",
          "type": "function"
        },
        {
          "inputs": [],
          "name": "nodesMaxAmount",
          "outputs": [
            {
              "internalType": "uint256",
              "name": "",
              "type": "uint256"
            }
          ],
          "stateMutability": "view",
          "type": "function"
        },
        {
          "inputs": [],
          "name": "nodesMinAmount",
          "outputs": [
            {
              "internalType": "uint256",
              "name": "",
              "type": "uint256"
            }
          ],
          "stateMutability": "view",
          "type": "function"
        },
        {
          "inputs": [],
          "name": "owner",
          "outputs": [
            {
              "internalType": "address",
              "name": "",
              "type": "address"
            }
          ],
          "stateMutability": "view",
          "type": "function"
        },
        {
          "inputs": [],
          "name": "pause",
          "outputs": [],
          "stateMutability": "nonpayable",
          "type": "function"
        },
        {
          "inputs": [],
          "name": "paused",
          "outputs": [
            {
              "internalType": "bool",
              "name": "",
              "type": "bool"
            }
          ],
          "stateMutability": "view",
          "type": "function"
        },
        {
          "inputs": [],
          "name": "pubkeyLength",
          "outputs": [
            {
              "internalType": "uint256",
              "name": "",
              "type": "uint256"
            }
          ],
          "stateMutability": "view",
          "type": "function"
        },
        {
          "inputs": [],
          "name": "renounceOwnership",
          "outputs": [],
          "stateMutability": "nonpayable",
          "type": "function"
        },
        {
          "inputs": [],
          "name": "signatureLength",
          "outputs": [
            {
              "internalType": "uint256",
              "name": "",
              "type": "uint256"
            }
          ],
          "stateMutability": "view",
          "type": "function"
        },
        {
          "inputs": [
            {
              "internalType": "address",
              "name": "newOwner",
              "type": "address"
            }
          ],
          "name": "transferOwnership",
          "outputs": [],
          "stateMutability": "nonpayable",
          "type": "function"
        },
        {
          "inputs": [],
          "name": "unpause",
          "outputs": [],
          "stateMutability": "nonpayable",
          "type": "function"
        },
        {
          "stateMutability": "payable",
          "type": "receive"
        }
      ],
      "evm": {
        "bytecode": {
          "linkReferences": {},
          "object": "608060405234801561001057600080fd5b50604051610df3380380610df383398101604081905261002f91610158565b60016000819055805460ff19169055338061006457604051631e4fbdf760e01b81526000600482015260240160405180910390fd5b61006d816100fe565b5081151560010361009f57600280546001600160a01b0319166f219ab540356cbb839cbe05303d7705fa1790556100f7565b6001600160a01b0381166000036100db57600280546001600160a01b031916738c5fecdc472e27bc447696f431e425d02dd46a8c1790556100f7565b600280546001600160a01b0319166001600160a01b0383161790555b50506101a3565b600180546001600160a01b03838116610100818102610100600160a81b031985161790945560405193909204169182907f8be0079c531659141344cd1fd0a4f28419497f9722a3daafe3b4186f6b6457e090600090a35050565b6000806040838503121561016b57600080fd5b8251801515811461017b57600080fd5b60208401519092506001600160a01b038116811461019857600080fd5b809150509250929050565b610c41806101b26000396000f3fe6080604052600436106100c65760003560e01c80638456cb591161007f578063c09bb1db11610059578063c09bb1db1461023e578063e94ad65b14610251578063f2fde38b14610271578063f4fbdfac1461029157600080fd5b80638456cb59146101dd5780638da5cb5b146101f2578063a5ab1d311461022957600080fd5b80631b9a93231461013c5780633f4ba83a1461016457806343ba591d1461017b5780634903e8be146101905780635c975abb146101a5578063715018a6146101c857600080fd5b366101375760405162461bcd60e51b815260206004820152603660248201527f426174636856616c696461746f724465706f7369746f723a20646f206e6f742060448201527573656e6420455448206469726563746c79206865726560501b60648201526084015b60405180910390fd5b600080fd5b34801561014857600080fd5b50610151606081565b6040519081526020015b60405180910390f35b34801561017057600080fd5b506101796102a6565b005b34801561018757600080fd5b50610151606481565b34801561019c57600080fd5b50610151603081565b3480156101b157600080fd5b5060015460ff16604051901515815260200161015b565b3480156101d457600080fd5b506101796102b8565b3480156101e957600080fd5b506101796102ca565b3480156101fe57600080fd5b5060015461010090046001600160a01b03165b6040516001600160a01b03909116815260200161015b565b34801561023557600080fd5b50610151602081565b61017961024c3660046109d2565b6102da565b34801561025d57600080fd5b50600254610211906001600160a01b031681565b34801561027d57600080fd5b5061017961028c366004610add565b6107e7565b34801561029d57600080fd5b50610151600181565b6102ae610825565b6102b6610858565b565b6102c0610825565b6102b660006108aa565b6102d2610825565b6102b6610904565b6102e261093f565b8880158015906102f3575060648111155b61037a5760405162461bcd60e51b815260206004820152604c60248201527f426174636856616c696461746f724465706f7369746f723a20796f752063616e60448201527f206465706f736974206f6e6c79203120746f20313030206e6f6465732070657260648201526b103a3930b739b0b1ba34b7b760a11b608482015260a40161012e565b878114801561038857508581145b801561039357508381145b801561039e57508181145b6104105760405162461bcd60e51b815260206004820152603a60248201527f426174636856616c696461746f724465706f7369746f723a20616d6f756e742060448201527f6f6620706172616d657465727320646f206e6f74206d61746368000000000000606482015260840161012e565b6000805b8381101561044a5784848281811061042e5761042e610b0d565b90506020020135826104409190610b23565b9150600101610414565b508034146104ca5760405162461bcd60e51b815260206004820152604160248201527f426174636856616c696461746f724465706f7369746f723a2070726f7669646560448201527f642045544820646f6573206e6f74206d617463682072657175697265642045546064820152600960fb1b608482015260a40161012e565b60005b8281101561079f5760308d8d838181106104e9576104e9610b0d565b90506020028101906104fb9190610b4a565b9050146105635760405162461bcd60e51b815260206004820152603060248201527f426174636856616c696461746f724465706f7369746f723a20696e636f72726560448201526f0c6e840e0eac4d6caf240d8cadccee8d60831b606482015260840161012e565b60208b8b8381811061057757610577610b0d565b90506020028101906105899190610b4a565b905014610600576040805162461bcd60e51b81526020600482015260248101919091527f426174636856616c696461746f724465706f7369746f723a20696e636f72726560448201527f6374207769746864726177616c2063726564656e7469616c73206c656e677468606482015260840161012e565b606089898381811061061457610614610b0d565b90506020028101906106269190610b4a565b9050146106915760405162461bcd60e51b815260206004820152603360248201527f426174636856616c696461746f724465706f7369746f723a20696e636f7272656044820152720c6e840e6d2cedcc2e8eae4ca40d8cadccee8d606b1b606482015260840161012e565b6002546001600160a01b031663228951188686848181106106b4576106b4610b0d565b905060200201358f8f858181106106cd576106cd610b0d565b90506020028101906106df9190610b4a565b8f8f878181106106f1576106f1610b0d565b90506020028101906107039190610b4a565b8f8f8981811061071557610715610b0d565b90506020028101906107279190610b4a565b8f8f8b81811061073957610739610b0d565b905060200201356040518963ffffffff1660e01b81526004016107629796959493929190610bba565b6000604051808303818588803b15801561077b57600080fd5b505af115801561078f573d6000803e3d6000fd5b50505050508060010190506104cd565b5060408051338152602081018490527f2d8a08b6430a894aea608bcaa6013d5d3e263bc49110605e4d4ba76930ae5c29910160405180910390a1505050505050505050505050565b6107ef610825565b6001600160a01b03811661081957604051631e4fbdf760e01b81526000600482015260240161012e565b610822816108aa565b50565b6001546001600160a01b036101009091041633146102b65760405163118cdaa760e01b815233600482015260240161012e565b610860610963565b6001805460ff191690557f5db9ee0a495bf2e6ff9c91a7834c1ba4fdd244a5e8aa4e537bd38aeae4b073aa335b6040516001600160a01b03909116815260200160405180910390a1565b600180546001600160a01b03838116610100818102610100600160a81b031985161790945560405193909204169182907f8be0079c531659141344cd1fd0a4f28419497f9722a3daafe3b4186f6b6457e090600090a35050565b61090c61093f565b6001805460ff1916811790557f62e78cea01bee320cd4e420270b5ea74000d11b0c9f74754ebdbfc544b05a2583361088d565b60015460ff16156102b65760405163d93c066560e01b815260040160405180910390fd5b60015460ff166102b657604051638dfc202b60e01b815260040160405180910390fd5b60008083601f84011261099857600080fd5b50813567ffffffffffffffff8111156109b057600080fd5b6020830191508360208260051b85010111156109cb57600080fd5b9250929050565b60008060008060008060008060008060a08b8d0312156109f157600080fd5b8a3567ffffffffffffffff811115610a0857600080fd5b610a148d828e01610986565b909b5099505060208b013567ffffffffffffffff811115610a3457600080fd5b610a408d828e01610986565b90995097505060408b013567ffffffffffffffff811115610a6057600080fd5b610a6c8d828e01610986565b90975095505060608b013567ffffffffffffffff811115610a8c57600080fd5b610a988d828e01610986565b90955093505060808b013567ffffffffffffffff811115610ab857600080fd5b610ac48d828e01610986565b915080935050809150509295989b9194979a5092959850565b600060208284031215610aef57600080fd5b81356001600160a01b0381168114610b0657600080fd5b9392505050565b634e487b7160e01b600052603260045260246000fd5b80820180821115610b4457634e487b7160e01b600052601160045260246000fd5b92915050565b6000808335601e19843603018112610b6157600080fd5b83018035915067ffffffffffffffff821115610b7c57600080fd5b6020019150368190038213156109cb57600080fd5b81835281816020850137506000828201602090810191909152601f909101601f19169091010190565b608081526000610bce60808301898b610b91565b8281036020840152610be181888a610b91565b90508281036040840152610bf6818688610b91565b9150508260608301529897505050505050505056fea26469706673582212202268f7dfb083816a6802118f9a412edb14c7a2335709d922f0acc941dd85838764736f6c634300081c0033",
          "opcodes": "PUSH1 0x80 PUSH1 0x40 MSTORE CALLVALUE DUP1 ISZERO PUSH2 0x10 JUMPI PUSH1 0x0 DUP1 REVERT JUMPDEST POP PUSH1 0x40 MLOAD PUSH2 0xDF3 CODESIZE SUB DUP1 PUSH2 0xDF3 DUP4 CODECOPY DUP2 ADD PUSH1 0x40 DUP2 SWAP1 MSTORE PUSH2 0x2F SWAP2 PUSH2 0x158 JUMP JUMPDEST PUSH1 0x1 PUSH1 0x0 DUP2 SWAP1 SSTORE DUP1 SLOAD PUSH1 0xFF NOT AND SWAP1 SSTORE CALLER DUP1 PUSH2 0x64 JUMPI PUSH1 0x40 MLOAD PUSH4 0x1E4FBDF7 PUSH1 0xE0 SHL DUP2 MSTORE PUSH1 0x0 PUSH1 0x4 DUP3 ADD MSTORE PUSH1 0x24 ADD PUSH1 0x40 MLOAD DUP1 SWAP2 SUB SWAP1 REVERT JUMPDEST PUSH2 0x6D DUP2 PUSH2 0xFE JUMP JUMPDEST POP DUP2 ISZERO ISZERO PUSH1 0x1 SUB PUSH2 0x9F JUMPI PUSH1 0x2 DUP1 SLOAD PUSH1 0x1 PUSH1 0x1 PUSH1 0xA0 SHL SUB NOT AND PUSH16 0x219AB540356CBB839CBE05303D7705FA OR SWAP1 SSTORE PUSH2 0xF7 JUMP JUMPDEST PUSH1 0x1 PUSH1 0x1 PUSH1 0xA0 SHL SUB DUP2 AND PUSH1 0x0 SUB PUSH2 0xDB JUMPI PUSH1 0x2 DUP1 SLOAD PUSH1 0x1 PUSH1 0x1 PUSH1 0xA0 SHL SUB NOT AND PUSH20 0x8C5FECDC472E27BC447696F431E425D02DD46A8C OR SWAP1 SSTORE PUSH2 0xF7 JUMP JUMPDEST PUSH1 0x2 DUP1 SLOAD PUSH1 0x1 PUSH1 0x1 PUSH1 0xA0 SHL SUB NOT AND PUSH1 0x1 PUSH1 0x1 PUSH1 0xA0 SHL SUB DUP4 AND OR SWAP1 SSTORE JUMPDEST POP POP PUSH2 0x1A3 JUMP JUMPDEST PUSH1 0x1 DUP1 SLOAD PUSH1 0x1 PUSH1 0x1 PUSH1 0xA0 SHL SUB DUP4 DUP2 AND PUSH2 0x100 DUP2 DUP2 MUL PUSH2 0x100 PUSH1 0x1 PUSH1 0xA8 SHL SUB NOT DUP6 AND OR SWAP1 SWAP5 SSTORE PUSH1 0x40 MLOAD SWAP4 SWAP1 SWAP3 DIV AND SWAP2 DUP3 SWAP1 PUSH32 0x8BE0079C531659141344CD1FD0A4F28419497F9722A3DAAFE3B4186F6B6457E0 SWAP1 PUSH1 0x0 SWAP1 LOG3 POP POP JUMP JUMPDEST PUSH1 0x0 DUP1 PUSH1 0x40 DUP4 DUP6 SUB SLT ISZERO PUSH2 0x16B JUMPI PUSH1 0x0 DUP1 REVERT JUMPDEST DUP3 MLOAD DUP1 ISZERO ISZERO DUP2 EQ PUSH2 0x17B JUMPI PUSH1 0x0 DUP1 REVERT JUMPDEST PUSH1 0x20 DUP5 ADD MLOAD SWAP1 SWAP3 POP PUSH1 0x1 PUSH1 0x1 PUSH1 0xA0 SHL SUB DUP2 AND DUP2 EQ PUSH2 0x198 JUMPI PUSH1 0x0 DUP1 REVERT JUMPDEST DUP1 SWAP2 POP POP SWAP3 POP SWAP3 SWAP1 POP JUMP JUMPDEST PUSH2 0xC41 DUP1 PUSH2 0x1B2 PUSH1 0x0 CODECOPY PUSH1 0x0 RETURN INVALID PUSH1 0x80 PUSH1 0x40 MSTORE PUSH1 0x4 CALLDATASIZE LT PUSH2 0xC6 JUMPI PUSH1 0x0 CALLDATALOAD PUSH1 0xE0 SHR DUP1 PUSH4 0x8456CB59 GT PUSH2 0x7F JUMPI DUP1 PUSH4 0xC09BB1DB GT PUSH2 0x59 JUMPI DUP1 PUSH4 0xC09BB1DB EQ PUSH2 0x23E JUMPI DUP1 PUSH4 0xE94AD65B EQ PUSH2 0x251 JUMPI DUP1 PUSH4 0xF2FDE38B EQ PUSH2 0x271 JUMPI DUP1 PUSH4 0xF4FBDFAC EQ PUSH2 0x291 JUMPI PUSH1 0x0 DUP1 REVERT JUMPDEST DUP1 PUSH4 0x8456CB59 EQ PUSH2 0x1DD JUMPI DUP1 PUSH4 0x8DA5CB5B EQ PUSH2 0x1F2 JUMPI DUP1 PUSH4 0xA5AB1D31 EQ PUSH2 0x229 JUMPI PUSH1 0x0 DUP1 REVERT JUMPDEST DUP1 PUSH4 0x1B9A9323 EQ PUSH2 0x13C JUMPI DUP1 PUSH4 0x3F4BA83A EQ PUSH2 0x164 JUMPI DUP1 PUSH4 0x43BA591D EQ PUSH2 0x17B JUMPI DUP1 PUSH4 0x4903E8BE EQ PUSH2 0x190 JUMPI DUP1 PUSH4 0x5C975ABB EQ PUSH2 0x1A5 JUMPI DUP1 PUSH4 0x715018A6 EQ PUSH2 0x1C8 JUMPI PUSH1 0x0 DUP1 REVERT JUMPDEST CALLDATASIZE PUSH2 0x137 JUMPI PUSH1 0x40 MLOAD PUSH3 0x461BCD PUSH1 0xE5 SHL DUP2 MSTORE PUSH1 0x20 PUSH1 0x4 DUP3 ADD MSTORE PUSH1 0x36 PUSH1 0x24 DUP3 ADD MSTORE PUSH32 0x426174636856616C696461746F724465706F7369746F723A20646F206E6F7420 PUSH1 0x44 DUP3 ADD MSTORE PUSH22 0x73656E6420455448206469726563746C792068657265 PUSH1 0x50 SHL PUSH1 0x64 DUP3 ADD MSTORE PUSH1 0x84 ADD JUMPDEST PUSH1 0x40 MLOAD DUP1 SWAP2 SUB SWAP1 REVERT JUMPDEST PUSH1 0x0 DUP1 REVERT JUMPDEST CALLVALUE DUP1 ISZERO PUSH2 0x148 JUMPI PUSH1 0x0 DUP1 REVERT JUMPDEST POP PUSH2 0x151 PUSH1 0x60 DUP2 JUMP JUMPDEST PUSH1 0x40 MLOAD SWAP1 DUP2 MSTORE PUSH1 0x20 ADD JUMPDEST PUSH1 0x40 MLOAD DUP1 SWAP2 SUB SWAP1 RETURN JUMPDEST CALLVALUE DUP1 ISZERO PUSH2 0x170 JUMPI PUSH1 0x0 DUP1 REVERT JUMPDEST POP PUSH2 0x179 PUSH2 0x2A6 JUMP JUMPDEST STOP JUMPDEST CALLVALUE DUP1 ISZERO PUSH2 0x187 JUMPI PUSH1 0x0 DUP1 REVERT JUMPDEST POP PUSH2 0x151 PUSH1 0x64 DUP2 JUMP JUMPDEST CALLVALUE DUP1 ISZERO PUSH2 0x19C JUMPI PUSH1 0x0 DUP1 REVERT JUMPDEST POP PUSH2 0x151 PUSH1 0x30 DUP2 JUMP JUMPDEST CALLVALUE DUP1 ISZERO PUSH2 0x1B1 JUMPI PUSH1 0x0 DUP1 REVERT JUMPDEST POP PUSH1 0x1 SLOAD PUSH1 0xFF AND PUSH1 0x40 MLOAD SWAP1 ISZERO ISZERO DUP2 MSTORE PUSH1 0x20 ADD PUSH2 0x15B JUMP JUMPDEST CALLVALUE DUP1 ISZERO PUSH2 0x1D4 JUMPI PUSH1 0x0 DUP1 REVERT JUMPDEST POP PUSH2 0x179 PUSH2 0x2B8 JUMP JUMPDEST CALLVALUE DUP1 ISZERO PUSH2 0x1E9 JUMPI PUSH1 0x0 DUP1 REVERT JUMPDEST POP PUSH2 0x179 PUSH2 0x2CA JUMP JUMPDEST CALLVALUE DUP1 ISZERO PUSH2 0x1FE JUMPI PUSH1 0x0 DUP1 REVERT JUMPDEST POP PUSH1 0x1 SLOAD PUSH2 0x100 SWAP1 DIV PUSH1 0x1 PUSH1 0x1 PUSH1 0xA0 SHL SUB AND JUMPDEST PUSH1 0x40 MLOAD PUSH1 0x1 PUSH1 0x1 PUSH1 0xA0 SHL SUB SWAP1 SWAP2 AND DUP2 MSTORE PUSH1 0x20 ADD PUSH2 0x15B JUMP JUMPDEST CALLVALUE DUP1 ISZERO PUSH2 0x235 JUMPI PUSH1 0x0 DUP1 REVERT JUMPDEST POP PUSH2 0x151 PUSH1 0x20 DUP2 JUMP JUMPDEST PUSH2 0x179 PUSH2 0x24C CALLDATASIZE PUSH1 0x4 PUSH2 0x9D2 JUMP JUMPDEST PUSH2 0x2DA JUMP JUMPDEST CALLVALUE DUP1 ISZERO PUSH2 0x25D JUMPI PUSH1 0x0 DUP1 REVERT JUMPDEST POP PUSH1 0x2 SLOAD PUSH2 0x211 SWAP1 PUSH1 0x1 PUSH1 0x1 PUSH1 0xA0 SHL SUB AND DUP2 JUMP JUMPDEST CALLVALUE DUP1 ISZERO PUSH2 0x27D JUMPI PUSH1 0x0 DUP1 REVERT JUMPDEST POP PUSH2 0x179 PUSH2 0x28C CALLDATASIZE PUSH1 0x4 PUSH2 0xADD JUMP JUMPDEST PUSH2 0x7E7 JUMP JUMPDEST CALLVALUE DUP1 ISZERO PUSH2 0x29D JUMPI PUSH1 0x0 DUP1 REVERT JUMPDEST POP PUSH2 0x151 PUSH1 0x1 DUP2 JUMP JUMPDEST PUSH2 0x2AE PUSH2 0x825 JUMP JUMPDEST PUSH2 0x2B6 PUSH2 0x858 JUMP JUMPDEST JUMP JUMPDEST PUSH2 0x2C0 PUSH2 0x825 JUMP JUMPDEST PUSH2 0x2B6 PUSH1 0x0 PUSH2 0x8AA JUMP JUMPDEST PUSH2 0x2D2 PUSH2 0x825 JUMP JUMPDEST PUSH2 0x2B6 PUSH2 0x904 JUMP JUMPDEST PUSH2 0x2E2 PUSH2 0x93F JUMP JUMPDEST DUP9 DUP1 ISZERO DUP1 ISZERO SWAP1 PUSH2 0x2F3 JUMPI POP PUSH1 0x64 DUP2 GT ISZERO JUMPDEST PUSH2 0x37A JUMPI PUSH1 0x40 MLOAD PUSH3 0x461BCD PUSH1 0xE5 SHL DUP2 MSTORE PUSH1 0x20 PUSH1 0x4 DUP3 ADD MSTORE PUSH1 0x4C PUSH1 0x24 DUP3 ADD MSTORE PUSH32 0x426174636856616C696461746F724465706F7369746F723A20796F752063616E PUSH1 0x44 DUP3 ADD MSTORE PUSH32 0x206465706F736974206F6E6C79203120746F20313030206E6F64657320706572 PUSH1 0x64 DUP3 ADD MSTORE PUSH12 0x103A3930B739B0B1BA34B7B7 PUSH1 0xA1 SHL PUSH1 0x84 DUP3 ADD MSTORE PUSH1 0xA4 ADD PUSH2 0x12E JUMP JUMPDEST DUP8 DUP2 EQ DUP1 ISZERO PUSH2 0x388 JUMPI POP DUP6 DUP2 EQ JUMPDEST DUP1 ISZERO PUSH2 0x393 JUMPI POP DUP4 DUP2 EQ JUMPDEST DUP1 ISZERO PUSH2 0x39E JUMPI POP DUP2 DUP2 EQ JUMPDEST PUSH2 0x410 JUMPI PUSH1 0x40 MLOAD PUSH3 0x461BCD PUSH1 0xE5 SHL DUP2 MSTORE PUSH1 0x20 PUSH1 0x4 DUP3 ADD MSTORE PUSH1 0x3A PUSH1 0x24 DUP3 ADD MSTORE PUSH32 0x426174636856616C696461746F724465706F7369746F723A20616D6F756E7420 PUSH1 0x44 DUP3 ADD MSTORE PUSH32 0x6F6620706172616D657465727320646F206E6F74206D61746368000000000000 PUSH1 0x64 DUP3 ADD MSTORE PUSH1 0x84 ADD PUSH2 0x12E JUMP JUMPDEST PUSH1 0x0 DUP1 JUMPDEST DUP4 DUP2 LT ISZERO PUSH2 0x44A JUMPI DUP5 DUP5 DUP3 DUP2 DUP2 LT PUSH2 0x42E JUMPI PUSH2 0x42E PUSH2 0xB0D JUMP JUMPDEST SWAP1 POP PUSH1 0x20 MUL ADD CALLDATALOAD DUP3 PUSH2 0x440 SWAP2 SWAP1 PUSH2 0xB23 JUMP JUMPDEST SWAP2 POP PUSH1 0x1 ADD PUSH2 0x414 JUMP JUMPDEST POP DUP1 CALLVALUE EQ PUSH2 0x4CA JUMPI PUSH1 0x40 MLOAD PUSH3 0x461BCD PUSH1 0xE5 SHL DUP2 MSTORE PUSH1 0x20 PUSH1 0x4 DUP3 ADD MSTORE PUSH1 0x41 PUSH1 0x24 DUP3 ADD MSTORE PUSH32 0x426174636856616C696461746F724465706F7369746F723A2070726F76696465 PUSH1 0x44 DUP3 ADD MSTORE PUSH32 0x642045544820646F6573206E6F74206D61746368207265717569726564204554 PUSH1 0x64 DUP3 ADD MSTORE PUSH1 0x9 PUSH1 0xFB SHL PUSH1 0x84 DUP3 ADD MSTORE PUSH1 0xA4 ADD PUSH2 0x12E JUMP JUMPDEST PUSH1 0x0 JUMPDEST DUP3 DUP2 LT ISZERO PUSH2 0x79F JUMPI PUSH1 0x30 DUP14 DUP14 DUP4 DUP2 DUP2 LT PUSH2 0x4E9 JUMPI PUSH2 0x4E9 PUSH2 0xB0D JUMP JUMPDEST SWAP1 POP PUSH1 0x20 MUL DUP2 ADD SWAP1 PUSH2 0x4FB SWAP2 SWAP1 PUSH2 0xB4A JUMP JUMPDEST SWAP1 POP EQ PUSH2 0x563 JUMPI PUSH1 0x40 MLOAD PUSH3 0x461BCD PUSH1 0xE5 SHL DUP2 MSTORE PUSH1 0x20 PUSH1 0x4 DUP3 ADD MSTORE PUSH1 0x30 PUSH1 0x24 DUP3 ADD MSTORE PUSH32 0x426174636856616C696461746F724465706F7369746F723A20696E636F727265 PUSH1 0x44 DUP3 ADD MSTORE PUSH16 0xC6E840E0EAC4D6CAF240D8CADCCEE8D PUSH1 0x83 SHL PUSH1 0x64 DUP3 ADD MSTORE PUSH1 0x84 ADD PUSH2 0x12E JUMP JUMPDEST PUSH1 0x20 DUP12 DUP12 DUP4 DUP2 DUP2 LT PUSH2 0x577 JUMPI PUSH2 0x577 PUSH2 0xB0D JUMP JUMPDEST SWAP1 POP PUSH1 0x20 MUL DUP2 ADD SWAP1 PUSH2 0x589 SWAP2 SWAP1 PUSH2 0xB4A JUMP JUMPDEST SWAP1 POP EQ PUSH2 0x600 JUMPI PUSH1 0x40 DUP1 MLOAD PUSH3 0x461BCD PUSH1 0xE5 SHL DUP2 MSTORE PUSH1 0x20 PUSH1 0x4 DUP3 ADD MSTORE PUSH1 0x24 DUP2 ADD SWAP2 SWAP1 SWAP2 MSTORE PUSH32 0x426174636856616C696461746F724465706F7369746F723A20696E636F727265 PUSH1 0x44 DUP3 ADD MSTORE PUSH32 0x6374207769746864726177616C2063726564656E7469616C73206C656E677468 PUSH1 0x64 DUP3 ADD MSTORE PUSH1 0x84 ADD PUSH2 0x12E JUMP JUMPDEST PUSH1 0x60 DUP10 DUP10 DUP4 DUP2 DUP2 LT PUSH2 0x614 JUMPI PUSH2 0x614 PUSH2 0xB0D JUMP JUMPDEST SWAP1 POP PUSH1 0x20 MUL DUP2 ADD SWAP1 PUSH2 0x626 SWAP2 SWAP1 PUSH2 0xB4A JUMP JUMPDEST SWAP1 POP EQ PUSH2 0x691 JUMPI PUSH1 0x40 MLOAD PUSH3 0x461BCD PUSH1 0xE5 SHL DUP2 MSTORE PUSH1 0x20 PUSH1 0x4 DUP3 ADD MSTORE PUSH1 0x33 PUSH1 0x24 DUP3 ADD MSTORE PUSH32 0x426174636856616C696461746F724465706F7369746F723A20696E636F727265 PUSH1 0x44 DUP3 ADD MSTORE PUSH19 0xC6E840E6D2CEDCC2E8EAE4CA40D8CADCCEE8D PUSH1 0x6B SHL PUSH1 0x64 DUP3 ADD MSTORE PUSH1 0x84 ADD PUSH2 0x12E JUMP JUMPDEST PUSH1 0x2 SLOAD PUSH1 0x1 PUSH1 0x1 PUSH1 0xA0 SHL SUB AND PUSH4 0x22895118 DUP7 DUP7 DUP5 DUP2 DUP2 LT PUSH2 0x6B4 JUMPI PUSH2 0x6B4 PUSH2 0xB0D JUMP JUMPDEST SWAP1 POP PUSH1 0x20 MUL ADD CALLDATALOAD DUP16 DUP16 DUP6 DUP2 DUP2 LT PUSH2 0x6CD JUMPI PUSH2 0x6CD PUSH2 0xB0D JUMP JUMPDEST SWAP1 POP PUSH1 0x20 MUL DUP2 ADD SWAP1 PUSH2 0x6DF SWAP2 SWAP1 PUSH2 0xB4A JUMP JUMPDEST DUP16 DUP16 DUP8 DUP2 DUP2 LT PUSH2 0x6F1 JUMPI PUSH2 0x6F1 PUSH2 0xB0D JUMP JUMPDEST SWAP1 POP PUSH1 0x20 MUL DUP2 ADD SWAP1 PUSH2 0x703 SWAP2 SWAP1 PUSH2 0xB4A JUMP JUMPDEST DUP16 DUP16 DUP10 DUP2 DUP2 LT PUSH2 0x715 JUMPI PUSH2 0x715 PUSH2 0xB0D JUMP JUMPDEST SWAP1 POP PUSH1 0x20 MUL DUP2 ADD SWAP1 PUSH2 0x727 SWAP2 SWAP1 PUSH2 0xB4A JUMP JUMPDEST DUP16 DUP16 DUP12 DUP2 DUP2 LT PUSH2 0x739 JUMPI PUSH2 0x739 PUSH2 0xB0D JUMP JUMPDEST SWAP1 POP PUSH1 0x20 MUL ADD CALLDATALOAD PUSH1 0x40 MLOAD DUP10 PUSH4 0xFFFFFFFF AND PUSH1 0xE0 SHL DUP2 MSTORE PUSH1 0x4 ADD PUSH2 0x762 SWAP8 SWAP7 SWAP6 SWAP5 SWAP4 SWAP3 SWAP2 SWAP1 PUSH2 0xBBA JUMP JUMPDEST PUSH1 0x0 PUSH1 0x40 MLOAD DUP1 DUP4 SUB DUP2 DUP6 DUP9 DUP1 EXTCODESIZE ISZERO DUP1 ISZERO PUSH2 0x77B JUMPI PUSH1 0x0 DUP1 REVERT JUMPDEST POP GAS CALL ISZERO DUP1 ISZERO PUSH2 0x78F JUMPI RETURNDATASIZE PUSH1 0x0 DUP1 RETURNDATACOPY RETURNDATASIZE PUSH1 0x0 REVERT JUMPDEST POP POP POP POP POP DUP1 PUSH1 0x1 ADD SWAP1 POP PUSH2 0x4CD JUMP JUMPDEST POP PUSH1 0x40 DUP1 MLOAD CALLER DUP2 MSTORE PUSH1 0x20 DUP2 ADD DUP5 SWAP1 MSTORE PUSH32 0x2D8A08B6430A894AEA608BCAA6013D5D3E263BC49110605E4D4BA76930AE5C29 SWAP2 ADD PUSH1 0x40 MLOAD DUP1 SWAP2 SUB SWAP1 LOG1 POP POP POP POP POP POP POP POP POP POP POP POP JUMP JUMPDEST PUSH2 0x7EF PUSH2 0x825 JUMP JUMPDEST PUSH1 0x1 PUSH1 0x1 PUSH1 0xA0 SHL SUB DUP2 AND PUSH2 0x819 JUMPI PUSH1 0x40 MLOAD PUSH4 0x1E4FBDF7 PUSH1 0xE0 SHL DUP2 MSTORE PUSH1 0x0 PUSH1 0x4 DUP3 ADD MSTORE PUSH1 0x24 ADD PUSH2 0x12E JUMP JUMPDEST PUSH2 0x822 DUP2 PUSH2 0x8AA JUMP JUMPDEST POP JUMP JUMPDEST PUSH1 0x1 SLOAD PUSH1 0x1 PUSH1 0x1 PUSH1 0xA0 SHL SUB PUSH2 0x100 SWAP1 SWAP2 DIV AND CALLER EQ PUSH2 0x2B6 JUMPI PUSH1 0x40 MLOAD PUSH4 0x118CDAA7 PUSH1 0xE0 SHL DUP2 MSTORE CALLER PUSH1 0x4 DUP3 ADD MSTORE PUSH1 0x24 ADD PUSH2 0x12E JUMP JUMPDEST PUSH2 0x860 PUSH2 0x963 JUMP JUMPDEST PUSH1 0x1 DUP1 SLOAD PUSH1 0xFF NOT AND SWAP1 SSTORE PUSH32 0x5DB9EE0A495BF2E6FF9C91A7834C1BA4FDD244A5E8AA4E537BD38AEAE4B073AA CALLER JUMPDEST PUSH1 0x40 MLOAD PUSH1 0x1 PUSH1 0x1 PUSH1 0xA0 SHL SUB SWAP1 SWAP2 AND DUP2 MSTORE PUSH1 0x20 ADD PUSH1 0x40 MLOAD DUP1 SWAP2 SUB SWAP1 LOG1 JUMP JUMPDEST PUSH1 0x1 DUP1 SLOAD PUSH1 0x1 PUSH1 0x1 PUSH1 0xA0 SHL SUB DUP4 DUP2 AND PUSH2 0x100 DUP2 DUP2 MUL PUSH2 0x100 PUSH1 0x1 PUSH1 0xA8 SHL SUB NOT DUP6 AND OR SWAP1 SWAP5 SSTORE PUSH1 0x40 MLOAD SWAP4 SWAP1 SWAP3 DIV AND SWAP2 DUP3 SWAP1 PUSH32 0x8BE0079C531659141344CD1FD0A4F28419497F9722A3DAAFE3B4186F6B6457E0 SWAP1 PUSH1 0x0 SWAP1 LOG3 POP POP JUMP JUMPDEST PUSH2 0x90C PUSH2 0x93F JUMP JUMPDEST PUSH1 0x1 DUP1 SLOAD PUSH1 0xFF NOT AND DUP2 OR SWAP1 SSTORE PUSH32 0x62E78CEA01BEE320CD4E420270B5EA74000D11B0C9F74754EBDBFC544B05A258 CALLER PUSH2 0x88D JUMP JUMPDEST PUSH1 0x1 SLOAD PUSH1 0xFF AND ISZERO PUSH2 0x2B6 JUMPI PUSH1 0x40 MLOAD PUSH4 0xD93C0665 PUSH1 0xE0 SHL DUP2 MSTORE PUSH1 0x4 ADD PUSH1 0x40 MLOAD DUP1 SWAP2 SUB SWAP1 REVERT JUMPDEST PUSH1 0x1 SLOAD PUSH1 0xFF AND PUSH2 0x2B6 JUMPI PUSH1 0x40 MLOAD PUSH4 0x8DFC202B PUSH1 0xE0 SHL DUP2 MSTORE PUSH1 0x4 ADD PUSH1 0x40 MLOAD DUP1 SWAP2 SUB SWAP1 REVERT JUMPDEST PUSH1 0x0 DUP1 DUP4 PUSH1 0x1F DUP5 ADD SLT PUSH2 0x998 JUMPI PUSH1 0x0 DUP1 REVERT JUMPDEST POP DUP2 CALLDATALOAD PUSH8 0xFFFFFFFFFFFFFFFF DUP2 GT ISZERO PUSH2 0x9B0 JUMPI PUSH1 0x0 DUP1 REVERT JUMPDEST PUSH1 0x20 DUP4 ADD SWAP2 POP DUP4 PUSH1 0x20 DUP3 PUSH1 0x5 SHL DUP6 ADD ADD GT ISZERO PUSH2 0x9CB JUMPI PUSH1 0x0 DUP1 REVERT JUMPDEST SWAP3 POP SWAP3 SWAP1 POP JUMP JUMPDEST PUSH1 0x0 DUP1 PUSH1 0x0 DUP1 PUSH1 0x0 DUP1 PUSH1 0x0 DUP1 PUSH1 0x0 DUP1 PUSH1 0xA0 DUP12 DUP14 SUB SLT ISZERO PUSH2 0x9F1 JUMPI PUSH1 0x0 DUP1 REVERT JUMPDEST DUP11 CALLDATALOAD PUSH8 0xFFFFFFFFFFFFFFFF DUP2 GT ISZERO PUSH2 0xA08 JUMPI PUSH1 0x0 DUP1 REVERT JUMPDEST PUSH2 0xA14 DUP14 DUP3 DUP15 ADD PUSH2 0x986 JUMP JUMPDEST SWAP1 SWAP12 POP SWAP10 POP POP PUSH1 0x20 DUP12 ADD CALLDATALOAD PUSH8 0xFFFFFFFFFFFFFFFF DUP2 GT ISZERO PUSH2 0xA34 JUMPI PUSH1 0x0 DUP1 REVERT JUMPDEST PUSH2 0xA40 DUP14 DUP3 DUP15 ADD PUSH2 0x986 JUMP JUMPDEST SWAP1 SWAP10 POP SWAP8 POP POP PUSH1 0x40 DUP12 ADD CALLDATALOAD PUSH8 0xFFFFFFFFFFFFFFFF DUP2 GT ISZERO PUSH2 0xA60 JUMPI PUSH1 0x0 DUP1 REVERT JUMPDEST PUSH2 0xA6C DUP14 DUP3 DUP15 ADD PUSH2 0x986 JUMP JUMPDEST SWAP1 SWAP8 POP SWAP6 POP POP PUSH1 0x60 DUP12 ADD CALLDATALOAD PUSH8 0xFFFFFFFFFFFFFFFF DUP2 GT ISZERO PUSH2 0xA8C JUMPI PUSH1 0x0 DUP1 REVERT JUMPDEST PUSH2 0xA98 DUP14 DUP3 DUP15 ADD PUSH2 0x986 JUMP JUMPDEST SWAP1 SWAP6 POP SWAP4 POP POP PUSH1 0x80 DUP12 ADD CALLDATALOAD PUSH8 0xFFFFFFFFFFFFFFFF DUP2 GT ISZERO PUSH2 0xAB8 JUMPI PUSH1 0x0 DUP1 REVERT JUMPDEST PUSH2 0xAC4 DUP14 DUP3 DUP15 ADD PUSH2 0x986 JUMP JUMPDEST SWAP2 POP DUP1 SWAP4 POP POP DUP1 SWAP2 POP POP SWAP3 SWAP6 SWAP9 SWAP12 SWAP2 SWAP5 SWAP8 SWAP11 POP SWAP3 SWAP6 SWAP9 POP JUMP JUMPDEST PUSH1 0x0 PUSH1 0x20 DUP3 DUP5 SUB SLT ISZERO PUSH2 0xAEF JUMPI PUSH1 0x0 DUP1 REVERT JUMPDEST DUP2 CALLDATALOAD PUSH1 0x1 PUSH1 0x1 PUSH1 0xA0 SHL SUB DUP2 AND DUP2 EQ PUSH2 0xB06 JUMPI PUSH1 0x0 DUP1 REVERT JUMPDEST SWAP4 SWAP3 POP POP POP JUMP JUMPDEST PUSH4 0x4E487B71 PUSH1 0xE0 SHL PUSH1 0x0 MSTORE PUSH1 0x32 PUSH1 0x4 MSTORE PUSH1 0x24 PUSH1 0x0 REVERT JUMPDEST DUP1 DUP3 ADD DUP1 DUP3 GT ISZERO PUSH2 0xB44 JUMPI PUSH4 0x4E487B71 PUSH1 0xE0 SHL PUSH1 0x0 MSTORE PUSH1 0x11 PUSH1 0x4 MSTORE PUSH1 0x24 PUSH1 0x0 REVERT JUMPDEST SWAP3 SWAP2 POP POP JUMP JUMPDEST PUSH1 0x0 DUP1 DUP4 CALLDATALOAD PUSH1 0x1E NOT DUP5 CALLDATASIZE SUB ADD DUP2 SLT PUSH2 0xB61 JUMPI PUSH1 0x0 DUP1 REVERT JUMPDEST DUP4 ADD DUP1 CALLDATALOAD SWAP2 POP PUSH8 0xFFFFFFFFFFFFFFFF DUP3 GT ISZERO PUSH2 0xB7C JUMPI PUSH1 0x0 DUP1 REVERT JUMPDEST PUSH1 0x20 ADD SWAP2 POP CALLDATASIZE DUP2 SWAP1 SUB DUP3 SGT ISZERO PUSH2 0x9CB JUMPI PUSH1 0x0 DUP1 REVERT JUMPDEST DUP2 DUP4 MSTORE DUP2 DUP2 PUSH1 0x20 DUP6 ADD CALLDATACOPY POP PUSH1 0x0 DUP3 DUP3 ADD PUSH1 0x20 SWAP1 DUP2 ADD SWAP2 SWAP1 SWAP2 MSTORE PUSH1 0x1F SWAP1 SWAP2 ADD PUSH1 0x1F NOT AND SWAP1 SWAP2 ADD ADD SWAP1 JUMP JUMPDEST PUSH1 0x80 DUP2 MSTORE PUSH1 0x0 PUSH2 0xBCE PUSH1 0x80 DUP4 ADD DUP10 DUP12 PUSH2 0xB91 JUMP JUMPDEST DUP3 DUP2 SUB PUSH1 0x20 DUP5 ADD MSTORE PUSH2 0xBE1 DUP2 DUP9 DUP11 PUSH2 0xB91 JUMP JUMPDEST SWAP1 POP DUP3 DUP2 SUB PUSH1 0x40 DUP5 ADD MSTORE PUSH2 0xBF6 DUP2 DUP7 DUP9 PUSH2 0xB91 JUMP JUMPDEST SWAP2 POP POP DUP3 PUSH1 0x60 DUP4 ADD MSTORE SWAP9 SWAP8 POP POP POP POP POP POP POP POP JUMP INVALID LOG2 PUSH5 0x6970667358 0x22 SLT KECCAK256 0x22 PUSH9 0xF7DFB083816A680211 DUP16 SWAP11 COINBASE 0x2E 0xDB EQ 0xC7 LOG2 CALLER JUMPI MULMOD 0xD9 0x22 CREATE 0xAC 0xC9 COINBASE 0xDD DUP6 DUP4 DUP8 PUSH5 0x736F6C6343 STOP ADDMOD SHR STOP CALLER "
        },
        "methodIdentifiers": {
          "credentialsLength()": "a5ab1d31",
          "deposit(bytes[],bytes[],bytes[],bytes32[],uint256[])": "c09bb1db",
          "depositContract()": "e94ad65b",
          "nodesMaxAmount()": "43ba591d",
          "nodesMinAmount()": "f4fbdfac",
          "owner()": "8da5cb5b",
          "pause()": "8456cb59",
          "paused()": "5c975abb",
          "pubkeyLength()": "4903e8be",
          "renounceOwnership()": "715018a6",
          "signatureLength()": "1b9a9323",
          "transferOwnership(address)": "f2fde38b",
          "unpause()": "3f4ba83a"
        }
      }
    }
  }
}